{
  "contractName": "SmallDailyBusiness",
  "abi": [
    {
      "inputs": [],
      "stateMutability": "nonpayable",
      "type": "constructor"
    },
    {
      "anonymous": false,
      "inputs": [
        {
          "indexed": false,
          "internalType": "address",
          "name": "_customerAddress",
          "type": "address"
        }
      ],
      "name": "PostProject",
      "type": "event"
    },
    {
      "anonymous": false,
      "inputs": [
        {
          "indexed": false,
          "internalType": "address",
          "name": "_customerAddress",
          "type": "address"
        },
        {
          "indexed": false,
          "internalType": "uint256",
          "name": "price",
          "type": "uint256"
        }
      ],
      "name": "chooseTheProject",
      "type": "event"
    },
    {
      "anonymous": false,
      "inputs": [
        {
          "indexed": false,
          "internalType": "address",
          "name": "_address",
          "type": "address"
        }
      ],
      "name": "logAddCustomer",
      "type": "event"
    },
    {
      "anonymous": false,
      "inputs": [
        {
          "indexed": false,
          "internalType": "address",
          "name": "_address",
          "type": "address"
        }
      ],
      "name": "logAddEngineers",
      "type": "event"
    },
    {
      "inputs": [
        {
          "internalType": "address",
          "name": "",
          "type": "address"
        }
      ],
      "name": "Engineers",
      "outputs": [
        {
          "internalType": "address payable",
          "name": "engineerAddress",
          "type": "address"
        },
        {
          "internalType": "string",
          "name": "Name",
          "type": "string"
        },
        {
          "internalType": "enum SmallDailyBusiness.State",
          "name": "state",
          "type": "uint8"
        }
      ],
      "stateMutability": "view",
      "type": "function"
    },
    {
      "inputs": [
        {
          "internalType": "address",
          "name": "",
          "type": "address"
        }
      ],
      "name": "customers",
      "outputs": [
        {
          "internalType": "address payable",
          "name": "customerAddress",
          "type": "address"
        },
        {
          "internalType": "string",
          "name": "Name",
          "type": "string"
        }
      ],
      "stateMutability": "view",
      "type": "function"
    },
    {
      "inputs": [],
      "name": "deal",
      "outputs": [
        {
          "internalType": "uint256",
          "name": "",
          "type": "uint256"
        }
      ],
      "stateMutability": "view",
      "type": "function"
    },
    {
      "inputs": [
        {
          "internalType": "address",
          "name": "",
          "type": "address"
        }
      ],
      "name": "offers",
      "outputs": [
        {
          "internalType": "uint256",
          "name": "price",
          "type": "uint256"
        },
        {
          "internalType": "uint256",
          "name": "day",
          "type": "uint256"
        },
        {
          "internalType": "string",
          "name": "moreInform",
          "type": "string"
        }
      ],
      "stateMutability": "view",
      "type": "function"
    },
    {
      "inputs": [],
      "name": "owner",
      "outputs": [
        {
          "internalType": "address",
          "name": "",
          "type": "address"
        }
      ],
      "stateMutability": "view",
      "type": "function"
    },
    {
      "inputs": [
        {
          "internalType": "address",
          "name": "",
          "type": "address"
        }
      ],
      "name": "projects",
      "outputs": [
        {
          "internalType": "address",
          "name": "owner",
          "type": "address"
        },
        {
          "internalType": "string",
          "name": "Name",
          "type": "string"
        },
        {
          "internalType": "enum SmallDailyBusiness.State",
          "name": "state",
          "type": "uint8"
        },
        {
          "internalType": "string",
          "name": "skills",
          "type": "string"
        },
        {
          "internalType": "string",
          "name": "information",
          "type": "string"
        },
        {
          "internalType": "uint256",
          "name": "averageOfprice",
          "type": "uint256"
        }
      ],
      "stateMutability": "view",
      "type": "function"
    },
    {
      "inputs": [
        {
          "internalType": "address payable",
          "name": "customerAddress",
          "type": "address"
        },
        {
          "internalType": "string",
          "name": "yourName",
          "type": "string"
        }
      ],
      "name": "addCustomer",
      "outputs": [
        {
          "internalType": "bool",
          "name": "",
          "type": "bool"
        }
      ],
      "stateMutability": "nonpayable",
      "type": "function"
    },
    {
      "inputs": [
        {
          "internalType": "address payable",
          "name": "_engineerAddress",
          "type": "address"
        },
        {
          "internalType": "string",
          "name": "_yourName",
          "type": "string"
        }
      ],
      "name": "addEngineer",
      "outputs": [
        {
          "internalType": "bool",
          "name": "",
          "type": "bool"
        }
      ],
      "stateMutability": "nonpayable",
      "type": "function"
    },
    {
      "inputs": [
        {
          "internalType": "string",
          "name": "Name",
          "type": "string"
        },
        {
          "internalType": "string",
          "name": "skills",
          "type": "string"
        },
        {
          "internalType": "string",
          "name": "information",
          "type": "string"
        },
        {
          "internalType": "uint256",
          "name": "averageOfprice",
          "type": "uint256"
        }
      ],
      "name": "addProject",
      "outputs": [
        {
          "internalType": "bool",
          "name": "",
          "type": "bool"
        }
      ],
      "stateMutability": "payable",
      "type": "function"
    },
    {
      "inputs": [
        {
          "internalType": "address",
          "name": "_customerAddress",
          "type": "address"
        },
        {
          "internalType": "uint256",
          "name": "day",
          "type": "uint256"
        },
        {
          "internalType": "uint256",
          "name": "price",
          "type": "uint256"
        },
        {
          "internalType": "string",
          "name": "information",
          "type": "string"
        }
      ],
      "name": "chooseToWork",
      "outputs": [
        {
          "internalType": "string",
          "name": "",
          "type": "string"
        }
      ],
      "stateMutability": "nonpayable",
      "type": "function"
    },
    {
      "inputs": [
        {
          "internalType": "address payable",
          "name": "_engineerAddress",
          "type": "address"
        }
      ],
      "name": "accepteCustomer",
      "outputs": [
        {
          "internalType": "bool",
          "name": "",
          "type": "bool"
        }
      ],
      "stateMutability": "payable",
      "type": "function"
    },
    {
      "inputs": [
        {
          "internalType": "string",
          "name": "Name",
          "type": "string"
        },
        {
          "internalType": "string",
          "name": "skills",
          "type": "string"
        },
        {
          "internalType": "string",
          "name": "information",
          "type": "string"
        },
        {
          "internalType": "uint256",
          "name": "averageOfprice",
          "type": "uint256"
        }
      ],
      "name": "EditProject",
      "outputs": [
        {
          "internalType": "string",
          "name": "",
          "type": "string"
        }
      ],
      "stateMutability": "nonpayable",
      "type": "function"
    },
    {
      "inputs": [
        {
          "internalType": "address",
          "name": "_customerAddress",
          "type": "address"
        }
      ],
      "name": "getProject",
      "outputs": [
        {
          "internalType": "string",
          "name": "Name",
          "type": "string"
        },
        {
          "internalType": "string",
          "name": "skills",
          "type": "string"
        },
        {
          "internalType": "string",
          "name": "information",
          "type": "string"
        },
        {
          "internalType": "uint256",
          "name": "averageOfprice",
          "type": "uint256"
        }
      ],
      "stateMutability": "view",
      "type": "function"
    },
    {
      "inputs": [
        {
          "internalType": "address",
          "name": "_customerAddress",
          "type": "address"
        }
      ],
      "name": "deleteProject",
      "outputs": [
        {
          "internalType": "string",
          "name": "",
          "type": "string"
        }
      ],
      "stateMutability": "nonpayable",
      "type": "function"
    },
    {
      "inputs": [],
      "name": "_passthevalue",
      "outputs": [
        {
          "internalType": "string",
          "name": "",
          "type": "string"
        }
      ],
      "stateMutability": "nonpayable",
      "type": "function"
    },
    {
      "inputs": [],
      "name": "getBalance",
      "outputs": [
        {
          "internalType": "uint256",
          "name": "",
          "type": "uint256"
        }
      ],
      "stateMutability": "view",
      "type": "function"
    }
  ],
  "bytecode": "0x6080604052600560003373ffffffffffffffffffffffffffffffffffffffff1673ffffffffffffffffffffffffffffffffffffffff16815260200190815260200160002060000160009054906101000a900473ffffffffffffffffffffffffffffffffffffffff16600260006101000a81548173ffffffffffffffffffffffffffffffffffffffff021916908373ffffffffffffffffffffffffffffffffffffffff1602179055503480156100b357600080fd5b50336000806101000a81548173ffffffffffffffffffffffffffffffffffffffff021916908373ffffffffffffffffffffffffffffffffffffffff16021790555060006001819055506135738061010b6000396000f3fe6080604052600436106100f35760003560e01c806378e4f9341161008a578063a871ca5d11610059578063a871ca5d1461038e578063aede6098146103cb578063cea1a67a14610408578063f987070514610433576100f3565b806378e4f934146102a7578063840e78fd146102e457806388bc8150146103265780638da5cb5b14610363576100f3565b8063336989ae116100c6578063336989ae146101cf5780633d8f426d1461020d578063413bf38f1461023d578063553df0211461027c576100f3565b806303bc470d146100f857806312065fe01461013757806320943f7a146101625780632200e21e14610192575b600080fd5b34801561010457600080fd5b5061011f600480360381019061011a919061271a565b610473565b60405161012e93929190612878565b60405180910390f35b34801561014357600080fd5b5061014c610552565b60405161015991906128cf565b60405180910390f35b61017c60048036038101906101779190612a4b565b61055a565b6040516101899190612b21565b60405180910390f35b34801561019e57600080fd5b506101b960048036038101906101b4919061271a565b610871565b6040516101c69190612b3c565b60405180910390f35b3480156101db57600080fd5b506101f660048036038101906101f1919061271a565b610afe565b604051610204929190612b5e565b60405180910390f35b61022760048036038101906102229190612bba565b610bca565b6040516102349190612b21565b60405180910390f35b34801561024957600080fd5b50610264600480360381019061025f919061271a565b611152565b60405161027393929190612be7565b60405180910390f35b34801561028857600080fd5b50610291611204565b60405161029e91906128cf565b60405180910390f35b3480156102b357600080fd5b506102ce60048036038101906102c99190612c25565b61120a565b6040516102db9190612b3c565b60405180910390f35b3480156102f057600080fd5b5061030b6004803603810190610306919061271a565b61169c565b60405161031d96959493929190612cb7565b60405180910390f35b34801561033257600080fd5b5061034d60048036038101906103489190612d2d565b61189d565b60405161035a9190612b21565b60405180910390f35b34801561036f57600080fd5b50610378611a95565b6040516103859190612d89565b60405180910390f35b34801561039a57600080fd5b506103b560048036038101906103b09190612d2d565b611ab9565b6040516103c29190612b21565b60405180910390f35b3480156103d757600080fd5b506103f260048036038101906103ed9190612a4b565b611cfa565b6040516103ff9190612b3c565b60405180910390f35b34801561041457600080fd5b5061041d612084565b60405161042a9190612b3c565b60405180910390f35b34801561043f57600080fd5b5061045a6004803603810190610455919061271a565b612232565b60405161046a9493929190612da4565b60405180910390f35b60056020528060005260406000206000915090508060000160009054906101000a900473ffffffffffffffffffffffffffffffffffffffff16908060010180546104bc90612e2d565b80601f01602080910402602001604051908101604052809291908181526020018280546104e890612e2d565b80156105355780601f1061050a57610100808354040283529160200191610535565b820191906000526020600020905b81548152906001019060200180831161051857829003601f168201915b5050505050908060020160009054906101000a900460ff16905083565b600047905090565b6000338073ffffffffffffffffffffffffffffffffffffffff163373ffffffffffffffffffffffffffffffffffffffff161461059557600080fd5b600073ffffffffffffffffffffffffffffffffffffffff16600660003373ffffffffffffffffffffffffffffffffffffffff1673ffffffffffffffffffffffffffffffffffffffff16815260200190815260200160002060000160009054906101000a900473ffffffffffffffffffffffffffffffffffffffff1673ffffffffffffffffffffffffffffffffffffffff1614610666576040517f08c379a000000000000000000000000000000000000000000000000000000000815260040161065d90612eab565b60405180910390fd5b823410156106a9576040517f08c379a00000000000000000000000000000000000000000000000000000000081526004016106a090612f3d565b60405180910390fd5b6040518060c001604052803373ffffffffffffffffffffffffffffffffffffffff168152602001878152602001600060038111156106ea576106e9612801565b5b815260200186815260200185815260200184815250600660003373ffffffffffffffffffffffffffffffffffffffff1673ffffffffffffffffffffffffffffffffffffffff16815260200190815260200160002060008201518160000160006101000a81548173ffffffffffffffffffffffffffffffffffffffff021916908373ffffffffffffffffffffffffffffffffffffffff16021790555060208201518160010190805190602001906107a1929190612605565b5060408201518160020160006101000a81548160ff021916908360038111156107cd576107cc612801565b5b021790555060608201518160030190805190602001906107ee929190612605565b50608082015181600401908051906020019061080b929190612605565b5060a08201518160050155905050600180546108279190612f8c565b6001819055507fc90a5997158125d11f471581d0f9c698a86d5f9b21d81eccee8f78d4d37327c13360405161085c9190612d89565b60405180910390a16001915050949350505050565b6060338073ffffffffffffffffffffffffffffffffffffffff16600460008373ffffffffffffffffffffffffffffffffffffffff1673ffffffffffffffffffffffffffffffffffffffff16815260200190815260200160002060000160009054906101000a900473ffffffffffffffffffffffffffffffffffffffff1673ffffffffffffffffffffffffffffffffffffffff1614610944576040517f08c379a000000000000000000000000000000000000000000000000000000000815260040161093b9061302e565b60405180910390fd5b6000600660008573ffffffffffffffffffffffffffffffffffffffff1673ffffffffffffffffffffffffffffffffffffffff168152602001908152602001600020905060008160000160006101000a81548173ffffffffffffffffffffffffffffffffffffffff021916908373ffffffffffffffffffffffffffffffffffffffff1602179055506040518060400160405280600181526020017f2000000000000000000000000000000000000000000000000000000000000000815250816001019080519060200190610a18929190612605565b506040518060400160405280600181526020017f2000000000000000000000000000000000000000000000000000000000000000815250816003019080519060200190610a66929190612605565b506040518060400160405280600181526020017f2000000000000000000000000000000000000000000000000000000000000000815250816004019080519060200190610ab4929190612605565b50600081600501819055506040518060400160405280601681526020017f7468652070726f6a656374207761732064656c6574650000000000000000000081525092505050919050565b60046020528060005260406000206000915090508060000160009054906101000a900473ffffffffffffffffffffffffffffffffffffffff1690806001018054610b4790612e2d565b80601f0160208091040260200160405190810160405280929190818152602001828054610b7390612e2d565b8015610bc05780601f10610b9557610100808354040283529160200191610bc0565b820191906000526020600020905b815481529060010190602001808311610ba357829003601f168201915b5050505050905082565b6000338073ffffffffffffffffffffffffffffffffffffffff16600460008373ffffffffffffffffffffffffffffffffffffffff1673ffffffffffffffffffffffffffffffffffffffff16815260200190815260200160002060000160009054906101000a900473ffffffffffffffffffffffffffffffffffffffff1673ffffffffffffffffffffffffffffffffffffffff1614610c9d576040517f08c379a0000000000000000000000000000000000000000000000000000000008152600401610c949061302e565b60405180910390fd5b33600073ffffffffffffffffffffffffffffffffffffffff16600660008373ffffffffffffffffffffffffffffffffffffffff1673ffffffffffffffffffffffffffffffffffffffff16815260200190815260200160002060000160009054906101000a900473ffffffffffffffffffffffffffffffffffffffff1673ffffffffffffffffffffffffffffffffffffffff161415610d70576040517f08c379a0000000000000000000000000000000000000000000000000000000008152600401610d679061309a565b60405180910390fd5b60006003811115610d8457610d83612801565b5b600660008373ffffffffffffffffffffffffffffffffffffffff1673ffffffffffffffffffffffffffffffffffffffff16815260200190815260200160002060020160009054906101000a900460ff166003811115610de657610de5612801565b5b14610e26576040517f08c379a0000000000000000000000000000000000000000000000000000000008152600401610e1d90613106565b60405180910390fd5b8373ffffffffffffffffffffffffffffffffffffffff16600560008673ffffffffffffffffffffffffffffffffffffffff1673ffffffffffffffffffffffffffffffffffffffff16815260200190815260200160002060000160009054906101000a900473ffffffffffffffffffffffffffffffffffffffff1673ffffffffffffffffffffffffffffffffffffffff1614610ef6576040517f08c379a0000000000000000000000000000000000000000000000000000000008152600401610eed90613172565b60405180910390fd5b3373ffffffffffffffffffffffffffffffffffffffff16600460003373ffffffffffffffffffffffffffffffffffffffff1673ffffffffffffffffffffffffffffffffffffffff16815260200190815260200160002060000160009054906101000a900473ffffffffffffffffffffffffffffffffffffffff1673ffffffffffffffffffffffffffffffffffffffff1614610fc6576040517f08c379a0000000000000000000000000000000000000000000000000000000008152600401610fbd906131de565b60405180910390fd5b6000600660003373ffffffffffffffffffffffffffffffffffffffff1673ffffffffffffffffffffffffffffffffffffffff168152602001908152602001600020905060018160020160006101000a81548160ff0219169083600381111561103157611030612801565b5b02179055506000600360008773ffffffffffffffffffffffffffffffffffffffff1673ffffffffffffffffffffffffffffffffffffffff16815260200190815260200160002090506000600560008873ffffffffffffffffffffffffffffffffffffffff1673ffffffffffffffffffffffffffffffffffffffff168152602001908152602001600020905060008160000160009054906101000a900473ffffffffffffffffffffffffffffffffffffffff1690508073ffffffffffffffffffffffffffffffffffffffff166108fc670de0b6b3a7640000856000015461111791906131fe565b9081150290604051600060405180830381858888f19350505050158015611142573d6000803e3d6000fd5b5060019650505050505050919050565b600360205280600052604060002060009150905080600001549080600101549080600201805461118190612e2d565b80601f01602080910402602001604051908101604052809291908181526020018280546111ad90612e2d565b80156111fa5780601f106111cf576101008083540402835291602001916111fa565b820191906000526020600020905b8154815290600101906020018083116111dd57829003601f168201915b5050505050905083565b60015481565b6060338073ffffffffffffffffffffffffffffffffffffffff16600560008373ffffffffffffffffffffffffffffffffffffffff1673ffffffffffffffffffffffffffffffffffffffff16815260200190815260200160002060000160009054906101000a900473ffffffffffffffffffffffffffffffffffffffff1673ffffffffffffffffffffffffffffffffffffffff16146112dd576040517f08c379a00000000000000000000000000000000000000000000000000000000081526004016112d4906132a4565b60405180910390fd5b85600073ffffffffffffffffffffffffffffffffffffffff16600660008373ffffffffffffffffffffffffffffffffffffffff1673ffffffffffffffffffffffffffffffffffffffff16815260200190815260200160002060000160009054906101000a900473ffffffffffffffffffffffffffffffffffffffff1673ffffffffffffffffffffffffffffffffffffffff1614156113b0576040517f08c379a00000000000000000000000000000000000000000000000000000000081526004016113a79061309a565b60405180910390fd5b600060038111156113c4576113c3612801565b5b600660008373ffffffffffffffffffffffffffffffffffffffff1673ffffffffffffffffffffffffffffffffffffffff16815260200190815260200160002060020160009054906101000a900460ff16600381111561142657611425612801565b5b14611466576040517f08c379a000000000000000000000000000000000000000000000000000000000815260040161145d90613106565b60405180910390fd5b6002600381111561147a57611479612801565b5b600560003373ffffffffffffffffffffffffffffffffffffffff1673ffffffffffffffffffffffffffffffffffffffff16815260200190815260200160002060020160009054906101000a900460ff1660038111156114dc576114db612801565b5b1461151c576040517f08c379a000000000000000000000000000000000000000000000000000000000815260040161151390613310565b60405180910390fd5b604051806060016040528086815260200187815260200185815250600360003373ffffffffffffffffffffffffffffffffffffffff1673ffffffffffffffffffffffffffffffffffffffff168152602001908152602001600020600082015181600001556020820151816001015560408201518160020190805190602001906115a6929190612605565b509050506003808111156115bd576115bc612801565b5b600560003373ffffffffffffffffffffffffffffffffffffffff1673ffffffffffffffffffffffffffffffffffffffff16815260200190815260200160002060020160009054906101000a900460ff16600381111561161f5761161e612801565b5b50507f140ba8a8a70ea6896f415e662fe4a3493133537db4dcd56586070e42253d9b433386604051611652929190613330565b60405180910390a16040518060400160405280601481526020017f7365742076616c7565206f6e2070726f6a65637400000000000000000000000081525092505050949350505050565b60066020528060005260406000206000915090508060000160009054906101000a900473ffffffffffffffffffffffffffffffffffffffff16908060010180546116e590612e2d565b80601f016020809104026020016040519081016040528092919081815260200182805461171190612e2d565b801561175e5780601f106117335761010080835404028352916020019161175e565b820191906000526020600020905b81548152906001019060200180831161174157829003601f168201915b5050505050908060020160009054906101000a900460ff169080600301805461178690612e2d565b80601f01602080910402602001604051908101604052809291908181526020018280546117b290612e2d565b80156117ff5780601f106117d4576101008083540402835291602001916117ff565b820191906000526020600020905b8154815290600101906020018083116117e257829003601f168201915b50505050509080600401805461181490612e2d565b80601f016020809104026020016040519081016040528092919081815260200182805461184090612e2d565b801561188d5780601f106118625761010080835404028352916020019161188d565b820191906000526020600020905b81548152906001019060200180831161187057829003601f168201915b5050505050908060050154905086565b60008073ffffffffffffffffffffffffffffffffffffffff16600460008573ffffffffffffffffffffffffffffffffffffffff1673ffffffffffffffffffffffffffffffffffffffff16815260200190815260200160002060000160009054906101000a900473ffffffffffffffffffffffffffffffffffffffff1673ffffffffffffffffffffffffffffffffffffffff161461196f576040517f08c379a0000000000000000000000000000000000000000000000000000000008152600401611966906133cb565b60405180910390fd5b60405180604001604052808473ffffffffffffffffffffffffffffffffffffffff16815260200183815250600460008573ffffffffffffffffffffffffffffffffffffffff1673ffffffffffffffffffffffffffffffffffffffff16815260200190815260200160002060008201518160000160006101000a81548173ffffffffffffffffffffffffffffffffffffffff021916908373ffffffffffffffffffffffffffffffffffffffff1602179055506020820151816001019080519060200190611a3c929190612605565b509050507f67db2594560e9767e8eec7f82a7ee7777909a9c55f1dc6ba490d7ef45ffcecfd83604051611a6f919061344a565b60405180910390a160018054611a859190612f8c565b6001819055506001905092915050565b60008054906101000a900473ffffffffffffffffffffffffffffffffffffffff1681565b60008073ffffffffffffffffffffffffffffffffffffffff16600560008573ffffffffffffffffffffffffffffffffffffffff1673ffffffffffffffffffffffffffffffffffffffff16815260200190815260200160002060000160009054906101000a900473ffffffffffffffffffffffffffffffffffffffff1673ffffffffffffffffffffffffffffffffffffffff1614611b8b576040517f08c379a0000000000000000000000000000000000000000000000000000000008152600401611b82906134b1565b60405180910390fd5b60405180606001604052808473ffffffffffffffffffffffffffffffffffffffff16815260200183815260200160026003811115611bcc57611bcb612801565b5b815250600560008573ffffffffffffffffffffffffffffffffffffffff1673ffffffffffffffffffffffffffffffffffffffff16815260200190815260200160002060008201518160000160006101000a81548173ffffffffffffffffffffffffffffffffffffffff021916908373ffffffffffffffffffffffffffffffffffffffff1602179055506020820151816001019080519060200190611c71929190612605565b5060408201518160020160006101000a81548160ff02191690836003811115611c9d57611c9c612801565b5b02179055509050507f9cd3b8c22eaf60823d8598cfb11eba80932bdb7e58442e690e6368677ac8159383604051611cd4919061344a565b60405180910390a160018054611cea9190612f8c565b6001819055506001905092915050565b6060338073ffffffffffffffffffffffffffffffffffffffff163373ffffffffffffffffffffffffffffffffffffffff1614611d3557600080fd5b33600073ffffffffffffffffffffffffffffffffffffffff16600660008373ffffffffffffffffffffffffffffffffffffffff1673ffffffffffffffffffffffffffffffffffffffff16815260200190815260200160002060000160009054906101000a900473ffffffffffffffffffffffffffffffffffffffff1673ffffffffffffffffffffffffffffffffffffffff161415611e08576040517f08c379a0000000000000000000000000000000000000000000000000000000008152600401611dff9061309a565b60405180910390fd5b60006003811115611e1c57611e1b612801565b5b600660008373ffffffffffffffffffffffffffffffffffffffff1673ffffffffffffffffffffffffffffffffffffffff16815260200190815260200160002060020160009054906101000a900460ff166003811115611e7e57611e7d612801565b5b14611ebe576040517f08c379a0000000000000000000000000000000000000000000000000000000008152600401611eb590613106565b60405180910390fd5b6040518060c001604052803373ffffffffffffffffffffffffffffffffffffffff16815260200188815260200160006003811115611eff57611efe612801565b5b815260200187815260200186815260200185815250600660003373ffffffffffffffffffffffffffffffffffffffff1673ffffffffffffffffffffffffffffffffffffffff16815260200190815260200160002060008201518160000160006101000a81548173ffffffffffffffffffffffffffffffffffffffff021916908373ffffffffffffffffffffffffffffffffffffffff1602179055506020820151816001019080519060200190611fb6929190612605565b5060408201518160020160006101000a81548160ff02191690836003811115611fe257611fe1612801565b5b02179055506060820151816003019080519060200190612003929190612605565b506080820151816004019080519060200190612020929190612605565b5060a082015181600501559050506001805461203c9190612f8c565b6001819055506040518060400160405280601681526020017f7468652070726f6a65637420776173207570646174650000000000000000000081525092505050949350505050565b60606000600660003373ffffffffffffffffffffffffffffffffffffffff1673ffffffffffffffffffffffffffffffffffffffff1681526020019081526020016000209050600160038111156120dd576120dc612801565b5b8160020160009054906101000a900460ff16600381111561210157612100612801565b5b14612141576040517f08c379a00000000000000000000000000000000000000000000000000000000081526004016121389061351d565b60405180910390fd5b6000600460003373ffffffffffffffffffffffffffffffffffffffff1673ffffffffffffffffffffffffffffffffffffffff16815260200190815260200160002060000160009054906101000a900473ffffffffffffffffffffffffffffffffffffffff16905060004790508173ffffffffffffffffffffffffffffffffffffffff166108fc829081150290604051600060405180830381858888f193505050501580156121f3573d6000803e3d6000fd5b506040518060400160405280601381526020017f7468652076616c75652069732072657475726e00000000000000000000000000815250935050505090565b60608060606000338073ffffffffffffffffffffffffffffffffffffffff163373ffffffffffffffffffffffffffffffffffffffff161461227257600080fd5b85600073ffffffffffffffffffffffffffffffffffffffff16600660008373ffffffffffffffffffffffffffffffffffffffff1673ffffffffffffffffffffffffffffffffffffffff16815260200190815260200160002060000160009054906101000a900473ffffffffffffffffffffffffffffffffffffffff1673ffffffffffffffffffffffffffffffffffffffff161415612345576040517f08c379a000000000000000000000000000000000000000000000000000000000815260040161233c9061309a565b60405180910390fd5b6000600381111561235957612358612801565b5b600660008373ffffffffffffffffffffffffffffffffffffffff1673ffffffffffffffffffffffffffffffffffffffff16815260200190815260200160002060020160009054906101000a900460ff1660038111156123bb576123ba612801565b5b146123fb576040517f08c379a00000000000000000000000000000000000000000000000000000000081526004016123f290613106565b60405180910390fd5b6000600660008973ffffffffffffffffffffffffffffffffffffffff1673ffffffffffffffffffffffffffffffffffffffff1681526020019081526020016000209050806001018160030182600401836005015483805461245b90612e2d565b80601f016020809104026020016040519081016040528092919081815260200182805461248790612e2d565b80156124d45780601f106124a9576101008083540402835291602001916124d4565b820191906000526020600020905b8154815290600101906020018083116124b757829003601f168201915b505050505093508280546124e790612e2d565b80601f016020809104026020016040519081016040528092919081815260200182805461251390612e2d565b80156125605780601f1061253557610100808354040283529160200191612560565b820191906000526020600020905b81548152906001019060200180831161254357829003601f168201915b5050505050925081805461257390612e2d565b80601f016020809104026020016040519081016040528092919081815260200182805461259f90612e2d565b80156125ec5780601f106125c1576101008083540402835291602001916125ec565b820191906000526020600020905b8154815290600101906020018083116125cf57829003601f168201915b5050505050915096509650965096505050509193509193565b82805461261190612e2d565b90600052602060002090601f016020900481019282612633576000855561267a565b82601f1061264c57805160ff191683800117855561267a565b8280016001018555821561267a579182015b8281111561267957825182559160200191906001019061265e565b5b509050612687919061268b565b5090565b5b808211156126a457600081600090555060010161268c565b5090565b6000604051905090565b600080fd5b600080fd5b600073ffffffffffffffffffffffffffffffffffffffff82169050919050565b60006126e7826126bc565b9050919050565b6126f7816126dc565b811461270257600080fd5b50565b600081359050612714816126ee565b92915050565b6000602082840312156127305761272f6126b2565b5b600061273e84828501612705565b91505092915050565b6000612752826126bc565b9050919050565b61276281612747565b82525050565b600081519050919050565b600082825260208201905092915050565b60005b838110156127a2578082015181840152602081019050612787565b838111156127b1576000848401525b50505050565b6000601f19601f8301169050919050565b60006127d382612768565b6127dd8185612773565b93506127ed818560208601612784565b6127f6816127b7565b840191505092915050565b7f4e487b7100000000000000000000000000000000000000000000000000000000600052602160045260246000fd5b6004811061284157612840612801565b5b50565b600081905061285282612830565b919050565b600061286282612844565b9050919050565b61287281612857565b82525050565b600060608201905061288d6000830186612759565b818103602083015261289f81856127c8565b90506128ae6040830184612869565b949350505050565b6000819050919050565b6128c9816128b6565b82525050565b60006020820190506128e460008301846128c0565b92915050565b600080fd5b600080fd5b7f4e487b7100000000000000000000000000000000000000000000000000000000600052604160045260246000fd5b61292c826127b7565b810181811067ffffffffffffffff8211171561294b5761294a6128f4565b5b80604052505050565b600061295e6126a8565b905061296a8282612923565b919050565b600067ffffffffffffffff82111561298a576129896128f4565b5b612993826127b7565b9050602081019050919050565b82818337600083830152505050565b60006129c26129bd8461296f565b612954565b9050828152602081018484840111156129de576129dd6128ef565b5b6129e98482856129a0565b509392505050565b600082601f830112612a0657612a056128ea565b5b8135612a168482602086016129af565b91505092915050565b612a28816128b6565b8114612a3357600080fd5b50565b600081359050612a4581612a1f565b92915050565b60008060008060808587031215612a6557612a646126b2565b5b600085013567ffffffffffffffff811115612a8357612a826126b7565b5b612a8f878288016129f1565b945050602085013567ffffffffffffffff811115612ab057612aaf6126b7565b5b612abc878288016129f1565b935050604085013567ffffffffffffffff811115612add57612adc6126b7565b5b612ae9878288016129f1565b9250506060612afa87828801612a36565b91505092959194509250565b60008115159050919050565b612b1b81612b06565b82525050565b6000602082019050612b366000830184612b12565b92915050565b60006020820190508181036000830152612b5681846127c8565b905092915050565b6000604082019050612b736000830185612759565b8181036020830152612b8581846127c8565b90509392505050565b612b9781612747565b8114612ba257600080fd5b50565b600081359050612bb481612b8e565b92915050565b600060208284031215612bd057612bcf6126b2565b5b6000612bde84828501612ba5565b91505092915050565b6000606082019050612bfc60008301866128c0565b612c0960208301856128c0565b8181036040830152612c1b81846127c8565b9050949350505050565b60008060008060808587031215612c3f57612c3e6126b2565b5b6000612c4d87828801612705565b9450506020612c5e87828801612a36565b9350506040612c6f87828801612a36565b925050606085013567ffffffffffffffff811115612c9057612c8f6126b7565b5b612c9c878288016129f1565b91505092959194509250565b612cb1816126dc565b82525050565b600060c082019050612ccc6000830189612ca8565b8181036020830152612cde81886127c8565b9050612ced6040830187612869565b8181036060830152612cff81866127c8565b90508181036080830152612d1381856127c8565b9050612d2260a08301846128c0565b979650505050505050565b60008060408385031215612d4457612d436126b2565b5b6000612d5285828601612ba5565b925050602083013567ffffffffffffffff811115612d7357612d726126b7565b5b612d7f858286016129f1565b9150509250929050565b6000602082019050612d9e6000830184612ca8565b92915050565b60006080820190508181036000830152612dbe81876127c8565b90508181036020830152612dd281866127c8565b90508181036040830152612de681856127c8565b9050612df560608301846128c0565b95945050505050565b7f4e487b7100000000000000000000000000000000000000000000000000000000600052602260045260246000fd5b60006002820490506001821680612e4557607f821691505b60208210811415612e5957612e58612dfe565b5b50919050565b7f746869732070726f6a65637420616c72656164792069732065786973742e0000600082015250565b6000612e95601e83612773565b9150612ea082612e5f565b602082019050919050565b60006020820190508181036000830152612ec481612e88565b9050919050565b7f7468652076616c756520796f752073656e642073686f756c64206265206c657360008201527f73207468616e20796f75722063757272656e7420617665726167652e00000000602082015250565b6000612f27603c83612773565b9150612f3282612ecb565b604082019050919050565b60006020820190508181036000830152612f5681612f1a565b9050919050565b7f4e487b7100000000000000000000000000000000000000000000000000000000600052601160045260246000fd5b6000612f97826128b6565b9150612fa2836128b6565b9250827fffffffffffffffffffffffffffffffffffffffffffffffffffffffffffffffff03821115612fd757612fd6612f5d565b5b828201905092915050565b7f74686973206163636f756e74206973206e6f7420437573746f6d65722e000000600082015250565b6000613018601d83612773565b915061302382612fe2565b602082019050919050565b600060208201905081810360008301526130478161300b565b9050919050565b7f5468652070726f6a656374206973206e6f74206e6f7468696e67000000000000600082015250565b6000613084601a83612773565b915061308f8261304e565b602082019050919050565b600060208201905081810360008301526130b381613077565b9050919050565b7f7468652070726f6a6563742068617320616c726561647920646f6e652e2e0000600082015250565b60006130f0601e83612773565b91506130fb826130ba565b602082019050919050565b6000602082019050818103600083015261311f816130e3565b9050919050565b7f74686973206163636f756e74206973206e6f7420616e20656e67696e65657200600082015250565b600061315c601f83612773565b915061316782613126565b602082019050919050565b6000602082019050818103600083015261318b8161314f565b9050919050565b7f7468697320637573746f6d6572206973206e6f742045786973742e0000000000600082015250565b60006131c8601b83612773565b91506131d382613192565b602082019050919050565b600060208201905081810360008301526131f7816131bb565b9050919050565b6000613209826128b6565b9150613214836128b6565b9250817fffffffffffffffffffffffffffffffffffffffffffffffffffffffffffffffff048311821515161561324d5761324c612f5d565b5b828202905092915050565b7f63616c6c65722069736e6f7420456e67696e6565720000000000000000000000600082015250565b600061328e601583612773565b915061329982613258565b602082019050919050565b600060208201905081810360008301526132bd81613281565b9050919050565b7f74686973206163636f756e7420616c7265616479207365742076616c75650000600082015250565b60006132fa601e83612773565b9150613305826132c4565b602082019050919050565b60006020820190508181036000830152613329816132ed565b9050919050565b60006040820190506133456000830185612ca8565b61335260208301846128c0565b9392505050565b7f74686973206164647265737320697320616c726561647920726567697374726560008201527f6400000000000000000000000000000000000000000000000000000000000000602082015250565b60006133b5602183612773565b91506133c082613359565b604082019050919050565b600060208201905081810360008301526133e4816133a8565b9050919050565b6000819050919050565b600061341061340b613406846126bc565b6133eb565b6126bc565b9050919050565b6000613422826133f5565b9050919050565b600061343482613417565b9050919050565b61344481613429565b82525050565b600060208201905061345f600083018461343b565b92915050565b7f74686973206164647265737320616c7265616479207265676973747265642e00600082015250565b600061349b601f83612773565b91506134a682613465565b602082019050919050565b600060208201905081810360008301526134ca8161348e565b9050919050565b7f746869732070726f6a65637420776173206e6f742066696e6973680000000000600082015250565b6000613507601b83612773565b9150613512826134d1565b602082019050919050565b60006020820190508181036000830152613536816134fa565b905091905056fea2646970667358221220491b28aac7a35e3bd7f2fc39b1371fc52637f010d0b2556aa31e95f618554c5a64736f6c634300080a0033",
  "immutableReferences": {},
  "source": "\n// SPDX-License-Identifier: MIT\npragma solidity >=0.4.24 <0.9.0;\n// @title supply chain in small daily business \n/// @author veeda baha - <veedabaha@gmail.com>\n/// Allows the customer to add their project or works in to the network.\n/// Projects can be accessed by customers and Engineers .\n/// The customers can be shared or add ,get,edit and delete their projects \n/// The engineers can allow to see the record of the project.\n/// after the Engineer select a project for doing that set a value or price to that project.\n/// The custommer can see the price or value that Engineer add in to the system.\n/// The finilly the customer can accepte one of thoes values and payed the ether to engineer.\n\n import \"./InterfaceOfCuntract.sol\";\n\ncontract SmallDailyBusiness is InterfaceOfCuntract{\n    \n    //  variables\n    address public owner ;\n    uint public deal;\n    address En =Engineers[msg.sender].engineerAddress;\n\n    //enum\n    enum State{\n      forSell,\n      Finish,\n      primsion,\n      unprmision\n    }\n  \n    //struct of customers\n    \n    struct customer{\n        address payable customerAddress;\n        string Name;\n    }\n    \n    //struct of Engineers\n    struct Engineer{\n      address payable engineerAddress;\n        string Name;\n        State state;\n       \n    }\n    \n    //struct of projects\n   struct Project{\n       address owner;\n        string Name;\n        State state;\n        string skills;\n        string information;\n        uint averageOfprice;\n    }\n\n    // struct of offer\n    struct offer{\n        uint256 price;\n        uint256 day;\n        string moreInform;\n    }\n    \n    /* \n   * Events\n   */\n      /// @notice Emitted when a Engineer is registred \n    /// @param _address Engineer address\n    event logAddCustomer(address _address);\n\n    /// @notice Emitted when a customer is registred \n    /// @param _address customer address\n    event logAddEngineers(address _address);\n\n    /// @notice Emitted when a Project is posted \n    /// @param _customerAddress is the address of Project\n    event PostProject(address _customerAddress);\n\n    /// @notice Emitted when Engineer add a price for working on project \n    /// @param  _customerAddress is the address of Project\n    /// @param price is the price that customer send to Engineer\n    event chooseTheProject(address _customerAddress , uint price);\n  \n    //mapping\n    \n    // store the offers of the Engineers with their project id\n    mapping( address => offer) public offers;\n    \n    //store struct of customers in mapping with their addresses\n    mapping(address => customer) public customers;\n    \n    //store struct of Engineers in mapping with their addresses\n    mapping (address=> Engineer) public Engineers;\n    \n     //store struct of projects in mapping with their addresses\n    mapping (address => Project) public projects;\n    \n    /* \n   * Modifiers\n   */\n\n    // Create a modifer, isOwner that checks if the msg.sender is the owner of the contract\n\n    modifier verifyCaller (address _address) { \n    require (msg.sender == _address); \n    _;\n    }\n    \n    modifier isOwner () { \n    require (owner == msg.sender,\n    \"Caller is not owner\"); \n    _;\n    }\n \n    modifier isCustomer(address _address){\n        require( customers[_address].customerAddress == _address,\n        \"this account is not Customer.\");\n        _;\n    }\n    \n    modifier isEngineer(address _Engineer){\n        require(Engineers[_Engineer].engineerAddress== _Engineer,\n        \"caller isnot Engineer\");\n        _;\n    }\n\n    modifier forSell(address _customerAddress){\n       require(projects[_customerAddress].owner != address(0), \n       \"The project is not nothing\");\n       require(projects[_customerAddress].state == State.forSell,\n       \"the project has already done..\");\n       _;\n    }\n    \n    modifier Finish(address _customerAddress){\n       require(projects[_customerAddress].owner != address(0), \n       \"The project is not nothing\");\n       require(projects[_customerAddress].state == State.Finish,\n       \"this Project has already been for sell\");\n       _;\n    }\n    modifier verifyState(){\n        require(Engineers[msg.sender].state == State.primsion,\n        \"this account already set value\");\n        _;\n    }\n\n    constructor() {\n        owner = msg.sender;\n        deal=0;\n    }\n    \n    //add customer`s address in to mapping\n    //add the parameters of customer in to struct\n    \n    function addCustomer(address payable customerAddress , \n    string memory yourName) \n    public override \n    returns(bool) {\n        require(customers[customerAddress].customerAddress == address(0),\n        \"this address is already registred\");\n        customers[customerAddress]=customer({\n            customerAddress : customerAddress,\n            Name : yourName\n        });\n        emit logAddCustomer(customerAddress);\n        deal = deal + 1;\n        return true;\n    } \n    \n    \n    //add Engineers`s address in to mapping\n    //add more details in to Engineer`s struct\n    \n    function addEngineer(address payable _engineerAddress,string memory _yourName) public override returns(bool){\n        require(Engineers[_engineerAddress].engineerAddress == address(0),\n        \"this address already registred.\");\n        Engineers[_engineerAddress] = Engineer({\n            engineerAddress : _engineerAddress,\n            Name :_yourName,\n            state :State.primsion\n        });\n    emit logAddEngineers(_engineerAddress);\n     deal = deal + 1;\n    return true;\n\n    }\n    \n    ///add Project`s id in to mapping\n    ///check the state of project should be forSell\n    ///check the modifier is customer to call that function \n    ///the customer should call that function\n    \n    function addProject(string memory Name,\n    string memory skills,string memory information\n    ,uint averageOfprice) \n    public override payable \n    verifyCaller(msg.sender) \n    returns(bool){\n        require(projects[msg.sender].owner == address(0), \n        \"this project already is exist.\");\n        require(msg.value>=averageOfprice,\n        \"the value you send should be less than your current average.\");\n        projects[msg.sender] = Project({\n            owner:msg.sender,\n            Name:Name,\n            skills:skills,\n            information:information,\n            averageOfprice:averageOfprice,\n            state:State.forSell\n             });\n        deal = deal + 1;\n        emit PostProject(msg.sender);\n        return true;\n    }\n\n    function chooseToWork(address _customerAddress,uint256 day, uint price , string memory information)  public override isEngineer(msg.sender)   forSell(_customerAddress) verifyState() \n    returns(string memory){\n        offers[msg.sender] = offer({\n            price: price,\n            day:day,\n            moreInform:information\n        });\n        Engineers[msg.sender].state == State.unprmision;\n        emit chooseTheProject(msg.sender,price);\n        return \"set value on project\";\n    }\n\n    function accepteCustomer(address payable _engineerAddress) public payable override isCustomer(msg.sender) forSell(msg.sender) returns(bool) {\n        require(Engineers[_engineerAddress].engineerAddress == _engineerAddress ,\n            \"this account is not an engineer\");\n        require(customers[msg.sender].customerAddress == msg.sender ,\n            \"this customer is not Exist.\");\n        Project storage p = projects[msg.sender];\n        p.state = State.Finish;\n        offer storage o = offers[_engineerAddress];\n        Engineer storage e = Engineers[_engineerAddress];\n        address payable to = e.engineerAddress; \n        to.transfer(o.price *(1 ether));\n        return true;\n    }\n\n    function EditProject(string memory Name,\n        string memory skills,\n        string memory information,uint averageOfprice)\n        public override\n        verifyCaller(msg.sender)\n        forSell(msg.sender)\n        returns (string memory)   \n        { \n      \n        projects[msg.sender] = Project({\n            owner:msg.sender,\n            Name:Name,\n            state:State.forSell,\n            skills:skills,\n            information:information,\n            averageOfprice:averageOfprice\n             });\n        deal = deal + 1;\n        return \"the project was update\"; \n    }\n\n    // get project parameters\n    function getProject(address _customerAddress) public view override \n    verifyCaller(msg.sender) \n    forSell(_customerAddress)\n    returns (string memory Name,string memory skills,\n    string memory information,uint averageOfprice)   \n    {\n        Project storage p = projects[_customerAddress];\n        return (p.Name,p.skills,p.information,p.averageOfprice); \n    }\n    \n\n    //can delete the project with the id of project\n    function deleteProject(address _customerAddress) \n    public override \n    isCustomer(msg.sender) \n    returns(string memory){\n\n        Project storage p = projects[_customerAddress];\n        p.owner= address(0);\n        p.Name = \" \";\n        p.skills = \" \";\n        p.information = \" \";\n        p.averageOfprice = 0 ;\n        \n        return \"the project was delete\";\n\n    }\n\n\n    // function paymentFull() public view  returns(uint){\n    //     uint day =offers[msg.sender].day;\n    //     uint a =day-(day*1/2);\n    //     // require(offers[msg.sender].day == a )\n    //     return a;\n\n    // }\n\n\n    function _passthevalue() public returns(string memory){\n        Project storage p = projects[msg.sender];\n        require(p.state == State.Finish ,\"this project was not finish\");\n        address payable to = customers[msg.sender].customerAddress ; \n        uint value = address(this).balance;\n        to.transfer(value);\n        return \"the value is return\";\n    }\n\n    function getBalance() external view returns(uint){\n        return address(this).balance;\n    }\n\n\n}",
  "sourcePath": "/home/veedaaha/blockchain-developer-bootcamp-final-project/backEnd/contracts/SmallDailyBusiness.sol",
  "compiler": {
    "name": "solc",
    "version": "0.8.10+commit.fc410830.Emscripten.clang"
  },
  "schemaVersion": "3.4.4",
  "updatedAt": "2021-12-17T17:59:43.234Z",
  "devdoc": {
    "events": {
      "PostProject(address)": {
        "params": {
          "_customerAddress": "is the address of Project"
        }
      },
      "chooseTheProject(address,uint256)": {
        "params": {
          "_customerAddress": "is the address of Project",
          "price": "is the price that customer send to Engineer"
        }
      },
      "logAddCustomer(address)": {
        "params": {
          "_address": "Engineer address"
        }
      },
      "logAddEngineers(address)": {
        "params": {
          "_address": "customer address"
        }
      }
    },
    "kind": "dev",
    "methods": {},
    "version": 1
  },
  "userdoc": {
    "events": {
      "PostProject(address)": {
        "notice": "Emitted when a Project is posted "
      },
      "chooseTheProject(address,uint256)": {
        "notice": "Emitted when Engineer add a price for working on project "
      },
      "logAddCustomer(address)": {
        "notice": "Emitted when a Engineer is registred "
      },
      "logAddEngineers(address)": {
        "notice": "Emitted when a customer is registred "
      }
    },
    "kind": "user",
    "methods": {
      "accepteCustomer(address)": {
        "notice": "Allows a customer for view the price of the project that engineer add it and payed that price."
      },
      "addCustomer(address,string)": {
        "notice": "Allows to add a new customer in the network."
      },
      "addEngineer(address,string)": {
        "notice": "Allows to add a new engineer in the network."
      },
      "addProject(string,string,string,uint256)": {
        "notice": "add Project`s id in to mapping check the state of project should be forSell check the modifier is customer to call that function  the customer should call that function"
      },
      "deleteProject(address)": {
        "notice": "Allows the customer for delete the project"
      },
      "getProject(address)": {
        "notice": "Allows a Engineer and customer and users for view the project."
      }
    },
    "version": 1
  }
}