{
  "contractName": "Healt",
  "abi": [
    {
      "inputs": [],
      "stateMutability": "nonpayable",
      "type": "constructor"
    },
    {
      "anonymous": false,
      "inputs": [
        {
          "indexed": true,
          "internalType": "address",
          "name": "owner",
          "type": "address"
        },
        {
          "indexed": true,
          "internalType": "address",
          "name": "viewer",
          "type": "address"
        },
        {
          "indexed": false,
          "internalType": "string",
          "name": "recordName",
          "type": "string"
        }
      ],
      "name": "Approval",
      "type": "event"
    },
    {
      "anonymous": false,
      "inputs": [
        {
          "indexed": false,
          "internalType": "string",
          "name": "recordName",
          "type": "string"
        },
        {
          "indexed": false,
          "internalType": "address",
          "name": "patientAddress",
          "type": "address"
        }
      ],
      "name": "PatientRecordAdded",
      "type": "event"
    },
    {
      "anonymous": false,
      "inputs": [
        {
          "indexed": false,
          "internalType": "address",
          "name": "user",
          "type": "address"
        }
      ],
      "name": "userAddition",
      "type": "event"
    },
    {
      "inputs": [],
      "name": "owner",
      "outputs": [
        {
          "internalType": "address",
          "name": "",
          "type": "address"
        }
      ],
      "stateMutability": "view",
      "type": "function",
      "constant": true
    },
    {
      "inputs": [
        {
          "internalType": "address",
          "name": "",
          "type": "address"
        }
      ],
      "name": "user",
      "outputs": [
        {
          "internalType": "string",
          "name": "fullName",
          "type": "string"
        },
        {
          "internalType": "enum Healt.State",
          "name": "state",
          "type": "uint8"
        },
        {
          "internalType": "address",
          "name": "userAddress",
          "type": "address"
        }
      ],
      "stateMutability": "view",
      "type": "function",
      "constant": true
    },
    {
      "inputs": [
        {
          "internalType": "string",
          "name": "",
          "type": "string"
        },
        {
          "internalType": "address",
          "name": "",
          "type": "address"
        }
      ],
      "name": "viewRecord",
      "outputs": [
        {
          "internalType": "bool",
          "name": "",
          "type": "bool"
        }
      ],
      "stateMutability": "view",
      "type": "function",
      "constant": true
    },
    {
      "inputs": [
        {
          "internalType": "address",
          "name": "_address",
          "type": "address"
        },
        {
          "internalType": "string",
          "name": "_fullName",
          "type": "string"
        }
      ],
      "name": "addPatient",
      "outputs": [
        {
          "internalType": "bool",
          "name": "",
          "type": "bool"
        }
      ],
      "stateMutability": "nonpayable",
      "type": "function"
    },
    {
      "inputs": [
        {
          "internalType": "address",
          "name": "_address",
          "type": "address"
        },
        {
          "internalType": "string",
          "name": "_fullName",
          "type": "string"
        }
      ],
      "name": "addDoctor",
      "outputs": [
        {
          "internalType": "bool",
          "name": "",
          "type": "bool"
        }
      ],
      "stateMutability": "nonpayable",
      "type": "function"
    },
    {
      "inputs": [
        {
          "internalType": "string",
          "name": "_fullName",
          "type": "string"
        },
        {
          "internalType": "address",
          "name": "_patientAddress",
          "type": "address"
        },
        {
          "internalType": "address",
          "name": "_doctorAddress",
          "type": "address"
        },
        {
          "internalType": "string",
          "name": "_cc",
          "type": "string"
        },
        {
          "internalType": "string",
          "name": "_pi",
          "type": "string"
        },
        {
          "internalType": "string",
          "name": "_comment",
          "type": "string"
        },
        {
          "internalType": "string",
          "name": "_mh",
          "type": "string"
        },
        {
          "internalType": "string",
          "name": "_recordName",
          "type": "string"
        }
      ],
      "name": "addRecord",
      "outputs": [],
      "stateMutability": "nonpayable",
      "type": "function"
    },
    {
      "inputs": [
        {
          "internalType": "address",
          "name": "_address",
          "type": "address"
        },
        {
          "internalType": "string",
          "name": "_recordName",
          "type": "string"
        }
      ],
      "name": "getRecord",
      "outputs": [
        {
          "internalType": "string",
          "name": "_fullName",
          "type": "string"
        },
        {
          "internalType": "address",
          "name": "_doctorAddress",
          "type": "address"
        },
        {
          "internalType": "address",
          "name": "_patientAddress",
          "type": "address"
        },
        {
          "internalType": "string",
          "name": "_cc",
          "type": "string"
        },
        {
          "internalType": "string",
          "name": "_pi",
          "type": "string"
        },
        {
          "internalType": "string",
          "name": "_comment",
          "type": "string"
        },
        {
          "internalType": "string",
          "name": "_mh",
          "type": "string"
        }
      ],
      "stateMutability": "view",
      "type": "function",
      "constant": true
    },
    {
      "inputs": [
        {
          "internalType": "address",
          "name": "_patientAddress",
          "type": "address"
        },
        {
          "internalType": "address",
          "name": "_viewner",
          "type": "address"
        },
        {
          "internalType": "string",
          "name": "_recordName",
          "type": "string"
        }
      ],
      "name": "grantPermission",
      "outputs": [],
      "stateMutability": "nonpayable",
      "type": "function"
    },
    {
      "inputs": [
        {
          "internalType": "address",
          "name": "_patientAddress",
          "type": "address"
        },
        {
          "internalType": "address",
          "name": "_viewner",
          "type": "address"
        },
        {
          "internalType": "string",
          "name": "_recordName",
          "type": "string"
        }
      ],
      "name": "revorkPermission",
      "outputs": [],
      "stateMutability": "nonpayable",
      "type": "function"
    }
  ],
  "bytecode": "0x6080604052336000806101000a81548173ffffffffffffffffffffffffffffffffffffffff021916908373ffffffffffffffffffffffffffffffffffffffff16021790555034801561005057600080fd5b50336000806101000a81548173ffffffffffffffffffffffffffffffffffffffff021916908373ffffffffffffffffffffffffffffffffffffffff1602179055506000600181905550612f00806100a86000396000f3fe608060405234801561001057600080fd5b50600436106100935760003560e01c806381e7e20e1161006657806381e7e20e146107645780638da5cb5b14610850578063bbaf36b514610884578063db66c06014610bc2578063f5a9b01914610cb357610093565b806350065b9814610098578063658a0011146101895780636b16553e146105785780637cf1e44514610673575b600080fd5b610171600480360360408110156100ae57600080fd5b81019080803590602001906401000000008111156100cb57600080fd5b8201836020820111156100dd57600080fd5b803590602001918460018302840111640100000000831117156100ff57600080fd5b91908080601f016020809104026020016040519081016040528093929190818152602001838380828437600081840152601f19601f820116905080830192505050505050509192919290803573ffffffffffffffffffffffffffffffffffffffff169060200190929190505050610dae565b60405180821515815260200191505060405180910390f35b61057660048036036101008110156101a057600080fd5b81019080803590602001906401000000008111156101bd57600080fd5b8201836020820111156101cf57600080fd5b803590602001918460018302840111640100000000831117156101f157600080fd5b91908080601f016020809104026020016040519081016040528093929190818152602001838380828437600081840152601f19601f820116905080830192505050505050509192919290803573ffffffffffffffffffffffffffffffffffffffff169060200190929190803573ffffffffffffffffffffffffffffffffffffffff1690602001909291908035906020019064010000000081111561029457600080fd5b8201836020820111156102a657600080fd5b803590602001918460018302840111640100000000831117156102c857600080fd5b91908080601f016020809104026020016040519081016040528093929190818152602001838380828437600081840152601f19601f8201169050808301925050505050505091929192908035906020019064010000000081111561032b57600080fd5b82018360208201111561033d57600080fd5b8035906020019184600183028401116401000000008311171561035f57600080fd5b91908080601f016020809104026020016040519081016040528093929190818152602001838380828437600081840152601f19601f820116905080830192505050505050509192919290803590602001906401000000008111156103c257600080fd5b8201836020820111156103d457600080fd5b803590602001918460018302840111640100000000831117156103f657600080fd5b91908080601f016020809104026020016040519081016040528093929190818152602001838380828437600081840152601f19601f8201169050808301925050505050505091929192908035906020019064010000000081111561045957600080fd5b82018360208201111561046b57600080fd5b8035906020019184600183028401116401000000008311171561048d57600080fd5b91908080601f016020809104026020016040519081016040528093929190818152602001838380828437600081840152601f19601f820116905080830192505050505050509192919290803590602001906401000000008111156104f057600080fd5b82018360208201111561050257600080fd5b8035906020019184600183028401116401000000008311171561052457600080fd5b91908080601f016020809104026020016040519081016040528093929190818152602001838380828437600081840152601f19601f820116905080830192505050505050509192919290505050610df3565b005b6106716004803603606081101561058e57600080fd5b81019080803573ffffffffffffffffffffffffffffffffffffffff169060200190929190803573ffffffffffffffffffffffffffffffffffffffff169060200190929190803590602001906401000000008111156105eb57600080fd5b8201836020820111156105fd57600080fd5b8035906020019184600183028401116401000000008311171561061f57600080fd5b91908080601f016020809104026020016040519081016040528093929190818152602001838380828437600081840152601f19601f8201169050808301925050505050505091929192905050506113ee565b005b61074c6004803603604081101561068957600080fd5b81019080803573ffffffffffffffffffffffffffffffffffffffff169060200190929190803590602001906401000000008111156106c657600080fd5b8201836020820111156106d857600080fd5b803590602001918460018302840111640100000000831117156106fa57600080fd5b91908080601f016020809104026020016040519081016040528093929190818152602001838380828437600081840152601f19601f820116905080830192505050505050509192919290505050611991565b60405180821515815260200191505060405180910390f35b6107a66004803603602081101561077a57600080fd5b81019080803573ffffffffffffffffffffffffffffffffffffffff169060200190929190505050611c03565b60405180806020018460018111156107ba57fe5b81526020018373ffffffffffffffffffffffffffffffffffffffff168152602001828103825285818151815260200191508051906020019080838360005b838110156108135780820151818401526020810190506107f8565b50505050905090810190601f1680156108405780820380516001836020036101000a031916815260200191505b5094505050505060405180910390f35b610858611cf2565b604051808273ffffffffffffffffffffffffffffffffffffffff16815260200191505060405180910390f35b61095d6004803603604081101561089a57600080fd5b81019080803573ffffffffffffffffffffffffffffffffffffffff169060200190929190803590602001906401000000008111156108d757600080fd5b8201836020820111156108e957600080fd5b8035906020019184600183028401116401000000008311171561090b57600080fd5b91908080601f016020809104026020016040519081016040528093929190818152602001838380828437600081840152601f19601f820116905080830192505050505050509192919290505050611d16565b60405180806020018873ffffffffffffffffffffffffffffffffffffffff1681526020018773ffffffffffffffffffffffffffffffffffffffff1681526020018060200180602001806020018060200186810386528d818151815260200191508051906020019080838360005b838110156109e55780820151818401526020810190506109ca565b50505050905090810190601f168015610a125780820380516001836020036101000a031916815260200191505b5086810385528a818151815260200191508051906020019080838360005b83811015610a4b578082015181840152602081019050610a30565b50505050905090810190601f168015610a785780820380516001836020036101000a031916815260200191505b50868103845289818151815260200191508051906020019080838360005b83811015610ab1578082015181840152602081019050610a96565b50505050905090810190601f168015610ade5780820380516001836020036101000a031916815260200191505b50868103835288818151815260200191508051906020019080838360005b83811015610b17578082015181840152602081019050610afc565b50505050905090810190601f168015610b445780820380516001836020036101000a031916815260200191505b50868103825287818151815260200191508051906020019080838360005b83811015610b7d578082015181840152602081019050610b62565b50505050905090810190601f168015610baa5780820380516001836020036101000a031916815260200191505b509c5050505050505050505050505060405180910390f35b610c9b60048036036040811015610bd857600080fd5b81019080803573ffffffffffffffffffffffffffffffffffffffff16906020019092919080359060200190640100000000811115610c1557600080fd5b820183602082011115610c2757600080fd5b80359060200191846001830284011164010000000083111715610c4957600080fd5b91908080601f016020809104026020016040519081016040528093929190818152602001838380828437600081840152601f19601f8201169050808301925050505050505091929192905050506126b1565b60405180821515815260200191505060405180910390f35b610dac60048036036060811015610cc957600080fd5b81019080803573ffffffffffffffffffffffffffffffffffffffff169060200190929190803573ffffffffffffffffffffffffffffffffffffffff16906020019092919080359060200190640100000000811115610d2657600080fd5b820183602082011115610d3857600080fd5b80359060200191846001830284011164010000000083111715610d5a57600080fd5b91908080601f016020809104026020016040519081016040528093929190818152602001838380828437600081840152601f19601f820116905080830192505050505050509192919290505050612919565b005b6004828051602081018201805184825260208301602085012081835280955050505050506020528060005260406000206000915091509054906101000a900460ff1681565b85600180811115610e0057fe5b600260008373ffffffffffffffffffffffffffffffffffffffff1673ffffffffffffffffffffffffffffffffffffffff16815260200190815260200160002060010160009054906101000a900460ff166001811115610e5b57fe5b14610ece576040517f08c379a00000000000000000000000000000000000000000000000000000000081526004018080602001828103825260128152602001807f55736572206973206e6f7420646f63746f72000000000000000000000000000081525060200191505060405180910390fd5b868073ffffffffffffffffffffffffffffffffffffffff163373ffffffffffffffffffffffffffffffffffffffff1614610f0757600080fd5b600073ffffffffffffffffffffffffffffffffffffffff16600260008a73ffffffffffffffffffffffffffffffffffffffff1673ffffffffffffffffffffffffffffffffffffffff16815260200190815260200160002060010160019054906101000a900473ffffffffffffffffffffffffffffffffffffffff1673ffffffffffffffffffffffffffffffffffffffff161415610fef576040517f08c379a0000000000000000000000000000000000000000000000000000000008152600401808060200182810382526038815260200180612e026038913960400191505060405180910390fd5b600073ffffffffffffffffffffffffffffffffffffffff16600260008b73ffffffffffffffffffffffffffffffffffffffff1673ffffffffffffffffffffffffffffffffffffffff16815260200190815260200160002060010160019054906101000a900473ffffffffffffffffffffffffffffffffffffffff1673ffffffffffffffffffffffffffffffffffffffff1614156110d7576040517f08c379a0000000000000000000000000000000000000000000000000000000008152600401808060200182810382526039815260200180612e926039913960400191505060405180910390fd5b60006040518061010001604052808c81526020018b73ffffffffffffffffffffffffffffffffffffffff1681526020018a73ffffffffffffffffffffffffffffffffffffffff168152602001898152602001888152602001878152602001868152602001858152509050806003856040518082805190602001908083835b602083106111785780518252602082019150602081019050602083039250611155565b6001836020036101000a038019825116818451168082178552505050505050905001915050908152602001604051809103902060008c73ffffffffffffffffffffffffffffffffffffffff1673ffffffffffffffffffffffffffffffffffffffff1681526020019081526020016000206000820151816000019080519060200190611204929190612d56565b5060208201518160010160006101000a81548173ffffffffffffffffffffffffffffffffffffffff021916908373ffffffffffffffffffffffffffffffffffffffff16021790555060408201518160020160006101000a81548173ffffffffffffffffffffffffffffffffffffffff021916908373ffffffffffffffffffffffffffffffffffffffff16021790555060608201518160030190805190602001906112af929190612d56565b5060808201518160040190805190602001906112cc929190612d56565b5060a08201518160050190805190602001906112e9929190612d56565b5060c0820151816006019080519060200190611306929190612d56565b5060e0820151816007019080519060200190611323929190612d56565b509050507f9a5d37c2375229a53861572fc892df32a454ed446cdc8dac87189cc1fa306e0a848b60405180806020018373ffffffffffffffffffffffffffffffffffffffff168152602001828103825284818151815260200191508051906020019080838360005b838110156113a657808201518184015260208101905061138b565b50505050905090810190601f1680156113d35780820380516001836020036101000a031916815260200191505b50935050505060405180910390a15050505050505050505050565b600073ffffffffffffffffffffffffffffffffffffffff16600260008473ffffffffffffffffffffffffffffffffffffffff1673ffffffffffffffffffffffffffffffffffffffff16815260200190815260200160002060010160019054906101000a900473ffffffffffffffffffffffffffffffffffffffff1673ffffffffffffffffffffffffffffffffffffffff16141561148a57600080fd5b6003816040518082805190602001908083835b602083106114c0578051825260208201915060208101905060208303925061149d565b6001836020036101000a038019825116818451168082178552505050505050905001915050908152602001604051809103902060008473ffffffffffffffffffffffffffffffffffffffff1673ffffffffffffffffffffffffffffffffffffffff16815260200190815260200160002060010160009054906101000a900473ffffffffffffffffffffffffffffffffffffffff1673ffffffffffffffffffffffffffffffffffffffff163373ffffffffffffffffffffffffffffffffffffffff16148061168157506003816040518082805190602001908083835b602083106115be578051825260208201915060208101905060208303925061159b565b6001836020036101000a038019825116818451168082178552505050505050905001915050908152602001604051809103902060008473ffffffffffffffffffffffffffffffffffffffff1673ffffffffffffffffffffffffffffffffffffffff16815260200190815260200160002060020160009054906101000a900473ffffffffffffffffffffffffffffffffffffffff1673ffffffffffffffffffffffffffffffffffffffff163373ffffffffffffffffffffffffffffffffffffffff16145b6116d6576040517f08c379a000000000000000000000000000000000000000000000000000000000815260040180806020018281038252602b815260200180612e67602b913960400191505060405180910390fd5b600015156004826040518082805190602001908083835b6020831061171057805182526020820191506020810190506020830392506116ed565b6001836020036101000a038019825116818451168082178552505050505050905001915050908152602001604051809103902060008473ffffffffffffffffffffffffffffffffffffffff1673ffffffffffffffffffffffffffffffffffffffff16815260200190815260200160002060009054906101000a900460ff16151514611803576040517f08c379a000000000000000000000000000000000000000000000000000000000815260040180806020018281038252601c8152602001807f416c7265616479206861732076696577696e672072696768747321210000000081525060200191505060405180910390fd5b60016004826040518082805190602001908083835b6020831061183b5780518252602082019150602081019050602083039250611818565b6001836020036101000a038019825116818451168082178552505050505050905001915050908152602001604051809103902060008473ffffffffffffffffffffffffffffffffffffffff1673ffffffffffffffffffffffffffffffffffffffff16815260200190815260200160002060006101000a81548160ff0219169083151502179055508173ffffffffffffffffffffffffffffffffffffffff163373ffffffffffffffffffffffffffffffffffffffff167f1f84ad2a44b444ff59c84b14c29a0515df82fffbd26a5a923e601d8302872c91836040518080602001828103825283818151815260200191508051906020019080838360005b83811015611952578082015181840152602081019050611937565b50505050905090810190601f16801561197f5780820380516001836020036101000a031916815260200191505b509250505060405180910390a3505050565b60008073ffffffffffffffffffffffffffffffffffffffff16600260008573ffffffffffffffffffffffffffffffffffffffff1673ffffffffffffffffffffffffffffffffffffffff16815260200190815260200160002060010160019054906101000a900473ffffffffffffffffffffffffffffffffffffffff1673ffffffffffffffffffffffffffffffffffffffff1614611a96576040517f08c379a000000000000000000000000000000000000000000000000000000000815260040180806020018281038252600d8152602001807f416c72656164792065786973740000000000000000000000000000000000000081525060200191505060405180910390fd5b6040518060600160405280838152602001600180811115611ab357fe5b81526020018473ffffffffffffffffffffffffffffffffffffffff16815250600260008573ffffffffffffffffffffffffffffffffffffffff1673ffffffffffffffffffffffffffffffffffffffff1681526020019081526020016000206000820151816000019080519060200190611b2d929190612d56565b5060208201518160010160006101000a81548160ff02191690836001811115611b5257fe5b021790555060408201518160010160016101000a81548173ffffffffffffffffffffffffffffffffffffffff021916908373ffffffffffffffffffffffffffffffffffffffff16021790555090505060018054016001819055507fc37330a6193f3b9e88961c5fbfa254648a2df8f3a1dfeac699a39346e6aed8d383604051808273ffffffffffffffffffffffffffffffffffffffff16815260200191505060405180910390a16001905092915050565b6002602052806000526040600020600091509050806000018054600181600116156101000203166002900480601f016020809104026020016040519081016040528092919081815260200182805460018160011615610100020316600290048015611caf5780601f10611c8457610100808354040283529160200191611caf565b820191906000526020600020905b815481529060010190602001808311611c9257829003601f168201915b5050505050908060010160009054906101000a900460ff16908060010160019054906101000a900473ffffffffffffffffffffffffffffffffffffffff16905083565b60008054906101000a900473ffffffffffffffffffffffffffffffffffffffff1681565b60606000806060806060808873ffffffffffffffffffffffffffffffffffffffff166003896040518082805190602001908083835b60208310611d6e5780518252602082019150602081019050602083039250611d4b565b6001836020036101000a038019825116818451168082178552505050505050905001915050908152602001604051809103902060008b73ffffffffffffffffffffffffffffffffffffffff1673ffffffffffffffffffffffffffffffffffffffff16815260200190815260200160002060010160009054906101000a900473ffffffffffffffffffffffffffffffffffffffff1673ffffffffffffffffffffffffffffffffffffffff1614611e8b576040517f08c379a00000000000000000000000000000000000000000000000000000000081526004018080602001828103825260128152602001807f207265636f7264206973206e6f7468696e67000000000000000000000000000081525060200191505060405180910390fd5b3373ffffffffffffffffffffffffffffffffffffffff166003896040518082805190602001908083835b60208310611ed85780518252602082019150602081019050602083039250611eb5565b6001836020036101000a038019825116818451168082178552505050505050905001915050908152602001604051809103902060008b73ffffffffffffffffffffffffffffffffffffffff1673ffffffffffffffffffffffffffffffffffffffff16815260200190815260200160002060010160009054906101000a900473ffffffffffffffffffffffffffffffffffffffff1673ffffffffffffffffffffffffffffffffffffffff16148061208257503373ffffffffffffffffffffffffffffffffffffffff166003896040518082805190602001908083835b60208310611fd65780518252602082019150602081019050602083039250611fb3565b6001836020036101000a038019825116818451168082178552505050505050905001915050908152602001604051809103902060008b73ffffffffffffffffffffffffffffffffffffffff1673ffffffffffffffffffffffffffffffffffffffff16815260200190815260200160002060020160009054906101000a900473ffffffffffffffffffffffffffffffffffffffff1673ffffffffffffffffffffffffffffffffffffffff16145b806121445750600115156004896040518082805190602001908083835b602083106120c2578051825260208201915060208101905060208303925061209f565b6001836020036101000a038019825116818451168082178552505050505050905001915050908152602001604051809103902060003373ffffffffffffffffffffffffffffffffffffffff1673ffffffffffffffffffffffffffffffffffffffff16815260200190815260200160002060009054906101000a900460ff161515145b5060006003896040518082805190602001908083835b6020831061217d578051825260208201915060208101905060208303925061215a565b6001836020036101000a038019825116818451168082178552505050505050905001915050908152602001604051809103902060008b73ffffffffffffffffffffffffffffffffffffffff1673ffffffffffffffffffffffffffffffffffffffff16815260200190815260200160002060405180610100016040529081600082018054600181600116156101000203166002900480601f0160208091040260200160405190810160405280929190818152602001828054600181600116156101000203166002900480156122925780601f1061226757610100808354040283529160200191612292565b820191906000526020600020905b81548152906001019060200180831161227557829003601f168201915b505050505081526020016001820160009054906101000a900473ffffffffffffffffffffffffffffffffffffffff1673ffffffffffffffffffffffffffffffffffffffff1673ffffffffffffffffffffffffffffffffffffffff1681526020016002820160009054906101000a900473ffffffffffffffffffffffffffffffffffffffff1673ffffffffffffffffffffffffffffffffffffffff1673ffffffffffffffffffffffffffffffffffffffff168152602001600382018054600181600116156101000203166002900480601f0160208091040260200160405190810160405280929190818152602001828054600181600116156101000203166002900480156123e05780601f106123b5576101008083540402835291602001916123e0565b820191906000526020600020905b8154815290600101906020018083116123c357829003601f168201915b50505050508152602001600482018054600181600116156101000203166002900480601f0160208091040260200160405190810160405280929190818152602001828054600181600116156101000203166002900480156124825780601f1061245757610100808354040283529160200191612482565b820191906000526020600020905b81548152906001019060200180831161246557829003601f168201915b50505050508152602001600582018054600181600116156101000203166002900480601f0160208091040260200160405190810160405280929190818152602001828054600181600116156101000203166002900480156125245780601f106124f957610100808354040283529160200191612524565b820191906000526020600020905b81548152906001019060200180831161250757829003601f168201915b50505050508152602001600682018054600181600116156101000203166002900480601f0160208091040260200160405190810160405280929190818152602001828054600181600116156101000203166002900480156125c65780601f1061259b576101008083540402835291602001916125c6565b820191906000526020600020905b8154815290600101906020018083116125a957829003601f168201915b50505050508152602001600782018054600181600116156101000203166002900480601f0160208091040260200160405190810160405280929190818152602001828054600181600116156101000203166002900480156126685780601f1061263d57610100808354040283529160200191612668565b820191906000526020600020905b81548152906001019060200180831161264b57829003601f168201915b5050505050815250509050806000015181602001518260400151836060015184608001518560a001518660c0015197509750975097509750975097505092959891949750929550565b60008073ffffffffffffffffffffffffffffffffffffffff16600260008573ffffffffffffffffffffffffffffffffffffffff1673ffffffffffffffffffffffffffffffffffffffff16815260200190815260200160002060010160019054906101000a900473ffffffffffffffffffffffffffffffffffffffff1673ffffffffffffffffffffffffffffffffffffffff16146127b6576040517f08c379a000000000000000000000000000000000000000000000000000000000815260040180806020018281038252600d8152602001807f416c72656164792065786973740000000000000000000000000000000000000081525060200191505060405180910390fd5b6040518060600160405280838152602001600060018111156127d457fe5b81526020018473ffffffffffffffffffffffffffffffffffffffff16815250600260008573ffffffffffffffffffffffffffffffffffffffff1673ffffffffffffffffffffffffffffffffffffffff168152602001908152602001600020600082015181600001908051906020019061284e929190612d56565b5060208201518160010160006101000a81548160ff0219169083600181111561287357fe5b021790555060408201518160010160016101000a81548173ffffffffffffffffffffffffffffffffffffffff021916908373ffffffffffffffffffffffffffffffffffffffff1602179055509050507fc37330a6193f3b9e88961c5fbfa254648a2df8f3a1dfeac699a39346e6aed8d383604051808273ffffffffffffffffffffffffffffffffffffffff16815260200191505060405180910390a16001905092915050565b6003816040518082805190602001908083835b6020831061294f578051825260208201915060208101905060208303925061292c565b6001836020036101000a038019825116818451168082178552505050505050905001915050908152602001604051809103902060008473ffffffffffffffffffffffffffffffffffffffff1673ffffffffffffffffffffffffffffffffffffffff16815260200190815260200160002060010160009054906101000a900473ffffffffffffffffffffffffffffffffffffffff1673ffffffffffffffffffffffffffffffffffffffff163373ffffffffffffffffffffffffffffffffffffffff161480612b1057506003816040518082805190602001908083835b60208310612a4d5780518252602082019150602081019050602083039250612a2a565b6001836020036101000a038019825116818451168082178552505050505050905001915050908152602001604051809103902060008473ffffffffffffffffffffffffffffffffffffffff1673ffffffffffffffffffffffffffffffffffffffff16815260200190815260200160002060020160009054906101000a900473ffffffffffffffffffffffffffffffffffffffff1673ffffffffffffffffffffffffffffffffffffffff163373ffffffffffffffffffffffffffffffffffffffff16145b612b65576040517f08c379a000000000000000000000000000000000000000000000000000000000815260040180806020018281038252602d815260200180612e3a602d913960400191505060405180910390fd5b600115156004826040518082805190602001908083835b60208310612b9f5780518252602082019150602081019050602083039250612b7c565b6001836020036101000a038019825116818451168082178552505050505050905001915050908152602001604051809103902060008473ffffffffffffffffffffffffffffffffffffffff1673ffffffffffffffffffffffffffffffffffffffff16815260200190815260200160002060009054906101000a900460ff16151514612c92576040517f08c379a00000000000000000000000000000000000000000000000000000000081526004018080602001828103825260138152602001807f4e6f206e65656420746f207265766f6b6521210000000000000000000000000081525060200191505060405180910390fd5b60006004826040518082805190602001908083835b60208310612cca5780518252602082019150602081019050602083039250612ca7565b6001836020036101000a038019825116818451168082178552505050505050905001915050908152602001604051809103902060008473ffffffffffffffffffffffffffffffffffffffff1673ffffffffffffffffffffffffffffffffffffffff16815260200190815260200160002060006101000a81548160ff021916908315150217905550505050565b828054600181600116156101000203166002900490600052602060002090601f016020900481019282612d8c5760008555612dd3565b82601f10612da557805160ff1916838001178555612dd3565b82800160010185558215612dd3579182015b82811115612dd2578251825591602001919060010190612db7565b5b509050612de09190612de4565b5090565b5b80821115612dfd576000816000905550600101612de5565b509056fe54686520646f63746f7241646472657373206973206e6f74206e6f7468696e67202c666972737420637265617465206120616464726573734f6e6c792070617469656e7420616e6420646f63746f722063616e207265766f726b207065726d697373696f6e4f6e6c792070617469656e7420616e6420646f63746f722063616e2067697665207065726d697373696f6e5468652070617469656e7441646472657373206973206e6f74206e6f7468696e67202c66697273742063726561746520612061646472657373a264697066735822122041fd3f0e7f61bc4c82a370972e4aca9dda56c710ee310fee9d86e527af06d28e64736f6c63430007060033",
  "immutableReferences": {},
  "source": "// SPDX-License-Identifier: MIT\r\npragma solidity >=0.5.16 <0.9.0;\r\n\r\ncontract Healt {\r\n //  variables\r\n  address public owner = msg.sender;\r\n  uint userCount;\r\n  \r\n\r\n// enum\r\n  enum State{\r\n      Patient,\r\n      Doctor\r\n  }\r\n  // struct\r\n  struct User{\r\n      string fullName;\r\n      State state;\r\n      address userAddress;\r\n  }\r\n   struct Record{\r\n        string fullName;\r\n        address patientAddress;\r\n        address doctorAddress;\r\n        string cc;\r\n        string pi;\r\n        string comment;\r\n        string mh;\r\n        string recordName;\r\n    }\r\n    \r\n    // mapping\r\n  mapping (address => User)public user;\r\n  \r\n  mapping (string => mapping (address => Record))private record;\r\n  \r\n  // Mapping from record name to approved address\r\n  mapping (string => mapping (address => bool)) public viewRecord;\r\n    \r\n  \r\n  \r\n  /* \r\n   * Events\r\n   */\r\n   event userAddition(address user);\r\n   event PatientRecordAdded(string recordName, address patientAddress);\r\n   event Approval(address indexed owner, address indexed viewer, string recordName);\r\n\r\n  \r\nconstructor(){\r\n    owner = msg.sender;\r\n    userCount =0;\r\n    \r\n}\r\n\r\n  /* \r\n   * Modifiers\r\n   */\r\n\r\n   modifier isOwner () { \r\n    require (owner == msg.sender,'\"Caller is not owner\"' ); \r\n    _;\r\n  }\r\n\r\n  modifier verifyCaller (address _address) { \r\n    require (msg.sender == _address); \r\n    _;\r\n  }\r\n\r\n   modifier isDoctor(address _address){\r\n       \r\n       require(user[_address].state == State.Doctor,\"User is not doctor\");\r\n       _;\r\n   }\r\n   modifier isPatient(address _address){\r\n        \r\n       require(user[_address].state == State.Patient,\"User is not patient\");\r\n       _;\r\n   } \r\n\r\n \r\n      //functions\r\n  function addPatient( address _address, string memory _fullName) public returns (bool) {\r\n         require(user[_address].userAddress == address(0),\"Already exist\");\r\n    user[_address] = User({\r\n     fullName: _fullName, \r\n     state: State.Patient, \r\n     userAddress: _address\r\n    });\r\n   \r\n   emit userAddition(_address);\r\n    return true;\r\n  }\r\n  function addDoctor( address _address, string memory _fullName) public returns (bool) {\r\n    require(user[_address].userAddress == address(0),\"Already exist\");\r\n    user[_address] = User({\r\n     fullName: _fullName, \r\n     state: State.Doctor, \r\n     userAddress: _address\r\n    });\r\n   \r\n   userCount = userCount + 1;\r\n   emit userAddition(_address);\r\n    return true;\r\n  }\r\n \r\n // \r\n // modifiers to ckeck the user is doctor  \r\n // and check the user calling this function is the doctor\r\n  function addRecord(string memory _fullName,address _patientAddress , address _doctorAddress ,\r\n  string memory _cc ,string memory _pi ,string memory _comment ,string memory _mh,\r\n  string memory _recordName) public isDoctor(_doctorAddress) verifyCaller(_doctorAddress){\r\n     \r\n      require(user[_doctorAddress].userAddress != address(0), \"The doctorAddress is not nothing ,first create a address\");\r\n      require(user[_patientAddress].userAddress != address(0), \"The patientAddress is not nothing ,first create a address\");\r\n      \r\n      Record memory newRecord = Record( _fullName,_patientAddress,\r\n      \r\n      _doctorAddress,_cc,_pi,_comment , _mh , _recordName );\r\n         record[_recordName][_patientAddress]=newRecord;\r\n         \r\n      emit PatientRecordAdded(_recordName, _patientAddress);\r\n  }\r\n  // getRecord\r\n//   function getRecord( string memory _recordName)\r\n//   view public isPatient(msg.sender)\r\n//   returns(string memory _fullName , address _doctorAddress,address _patientAddress,\r\n//   string memory _cc , string memory _pi  ,string memory _comment,string memory _mh)\r\n  \r\n//  {\r\n \r\n//       Record memory s =record[_recordName][msg.sender];\r\n       \r\n//         return(s.fullName,s.patientAddress, s.doctorAddress,s.cc,s.pi,s.comment,s.mh);\r\n//   }\r\n  // ViewPatientRecord\r\n  function getRecord(address _address,\r\n  string memory _recordName)view public\r\n  returns(string memory _fullName , address _doctorAddress,address _patientAddress,\r\n  string memory _cc , string memory _pi  ,string memory _comment,string memory _mh)\r\n  {\r\n      \r\n       require(record[_recordName][_address].patientAddress == _address \r\n      ,\" record is nothing\");\r\n      \r\n      // in 3 state we can get record 1: the patient is the owner of the record \r\n      // 2: be doctor an add record 3: have Permission for get record.\r\n      ((record[_recordName][_address].patientAddress == msg.sender )||(record[_recordName][_address].doctorAddress == msg.sender)||\r\n      (viewRecord[_recordName][msg.sender] == true),\" the doctor and the user have pemission can view \");\r\n      \r\n      // return the record of patient\r\n       Record memory s =record[_recordName][_address];\r\n       \r\n        return(s.fullName,s.patientAddress, s.doctorAddress,s.cc,s.pi,s.comment,s.mh);\r\n  }\r\n  \r\n  // grantPermission\r\n  \r\n  function grantPermission(address _patientAddress,address _viewner, string memory _recordName  )\r\n  public \r\n   {\r\n       \r\n       // check the viewner is accsesed \r\n       require(user[_viewner].userAddress != address(0));\r\n       \r\n       // the person calling this function is the patient or doctor ( just is the owner of the record\r\n       // or doctor can grant permission)\r\n    \r\n       require(( msg.sender == record[_recordName][_patientAddress].patientAddress)||\r\n       (msg.sender ==record[_recordName][_patientAddress].doctorAddress)\r\n       ,\"Only patient and doctor can give permission\");\r\n       \r\n       require(viewRecord[_recordName][_viewner] == false, \"Already has viewing rights!!\");\r\n       \r\n        viewRecord[_recordName][_viewner]= true;\r\n        \r\n        emit Approval(msg.sender, _viewner, _recordName);\r\n        \r\n    }\r\n    \r\n    //revorkPermission \r\n  \r\n  function revorkPermission (address _patientAddress,address _viewner, \r\n  string memory _recordName) public{\r\n       \r\n       require(( msg.sender == record[_recordName][_patientAddress].patientAddress)||\r\n       (msg.sender ==record[_recordName][_patientAddress].doctorAddress)\r\n       ,\"Only patient and doctor can revork permission\");\r\n       require(viewRecord[_recordName][_viewner] == true, \"No need to revoke!!\");\r\n       \r\n      viewRecord[_recordName][_viewner]= false;\r\n  }   \r\n\r\n    \r\n}\r\n",
  "sourcePath": "C:/Users/sodaba ulomi/Desktop/wslapp/backEnd/contracts/Healt.sol",
  "compiler": {
    "name": "solc",
    "version": "0.7.6+commit.7338295f.Emscripten.clang"
  },
  "schemaVersion": "3.3.3",
  "updatedAt": "2021-11-09T06:36:28.267Z",
  "networkType": "ethereum",
  "devdoc": {
    "kind": "dev",
    "methods": {},
    "version": 1
  },
  "userdoc": {
    "kind": "user",
    "methods": {},
    "version": 1
  }
}