{
  "contractName": "SmallBusiness",
  "abi": [
    {
      "inputs": [],
      "stateMutability": "nonpayable",
      "type": "constructor"
    },
    {
      "anonymous": false,
      "inputs": [
        {
          "indexed": false,
          "internalType": "address",
          "name": "_customerAddress",
          "type": "address"
        }
      ],
      "name": "PostProject",
      "type": "event"
    },
    {
      "anonymous": false,
      "inputs": [
        {
          "indexed": false,
          "internalType": "address",
          "name": "_customerAddress",
          "type": "address"
        },
        {
          "indexed": false,
          "internalType": "uint256",
          "name": "price",
          "type": "uint256"
        }
      ],
      "name": "chooseTheProject",
      "type": "event"
    },
    {
      "anonymous": false,
      "inputs": [
        {
          "indexed": false,
          "internalType": "address",
          "name": "_address",
          "type": "address"
        }
      ],
      "name": "logAddCustomer",
      "type": "event"
    },
    {
      "anonymous": false,
      "inputs": [
        {
          "indexed": false,
          "internalType": "address",
          "name": "_address",
          "type": "address"
        }
      ],
      "name": "logAddEngineers",
      "type": "event"
    },
    {
      "inputs": [
        {
          "internalType": "address",
          "name": "",
          "type": "address"
        }
      ],
      "name": "Engineers",
      "outputs": [
        {
          "internalType": "address payable",
          "name": "engineerAddress",
          "type": "address"
        },
        {
          "internalType": "string",
          "name": "Name",
          "type": "string"
        },
        {
          "internalType": "enum SmallBusiness.State",
          "name": "state",
          "type": "uint8"
        }
      ],
      "stateMutability": "view",
      "type": "function",
      "constant": true
    },
    {
      "inputs": [
        {
          "internalType": "address",
          "name": "",
          "type": "address"
        }
      ],
      "name": "customers",
      "outputs": [
        {
          "internalType": "address payable",
          "name": "customerAddress",
          "type": "address"
        },
        {
          "internalType": "string",
          "name": "Name",
          "type": "string"
        }
      ],
      "stateMutability": "view",
      "type": "function",
      "constant": true
    },
    {
      "inputs": [],
      "name": "deal",
      "outputs": [
        {
          "internalType": "uint256",
          "name": "",
          "type": "uint256"
        }
      ],
      "stateMutability": "view",
      "type": "function",
      "constant": true
    },
    {
      "inputs": [
        {
          "internalType": "address",
          "name": "",
          "type": "address"
        }
      ],
      "name": "offers",
      "outputs": [
        {
          "internalType": "uint256",
          "name": "price",
          "type": "uint256"
        },
        {
          "internalType": "uint256",
          "name": "day",
          "type": "uint256"
        },
        {
          "internalType": "string",
          "name": "moreInform",
          "type": "string"
        }
      ],
      "stateMutability": "view",
      "type": "function",
      "constant": true
    },
    {
      "inputs": [],
      "name": "owner",
      "outputs": [
        {
          "internalType": "address",
          "name": "",
          "type": "address"
        }
      ],
      "stateMutability": "view",
      "type": "function",
      "constant": true
    },
    {
      "inputs": [
        {
          "internalType": "address",
          "name": "",
          "type": "address"
        }
      ],
      "name": "projects",
      "outputs": [
        {
          "internalType": "address",
          "name": "owner",
          "type": "address"
        },
        {
          "internalType": "string",
          "name": "Name",
          "type": "string"
        },
        {
          "internalType": "enum SmallBusiness.State",
          "name": "state",
          "type": "uint8"
        },
        {
          "internalType": "string",
          "name": "skills",
          "type": "string"
        },
        {
          "internalType": "string",
          "name": "information",
          "type": "string"
        },
        {
          "internalType": "uint256",
          "name": "averageOfprice",
          "type": "uint256"
        }
      ],
      "stateMutability": "view",
      "type": "function",
      "constant": true
    },
    {
      "inputs": [
        {
          "internalType": "address payable",
          "name": "customerAddress",
          "type": "address"
        },
        {
          "internalType": "string",
          "name": "yourName",
          "type": "string"
        }
      ],
      "name": "addCustomer",
      "outputs": [
        {
          "internalType": "bool",
          "name": "",
          "type": "bool"
        }
      ],
      "stateMutability": "nonpayable",
      "type": "function"
    },
    {
      "inputs": [
        {
          "internalType": "address payable",
          "name": "_engineerAddress",
          "type": "address"
        },
        {
          "internalType": "string",
          "name": "_yourName",
          "type": "string"
        }
      ],
      "name": "addEngineer",
      "outputs": [
        {
          "internalType": "bool",
          "name": "",
          "type": "bool"
        }
      ],
      "stateMutability": "nonpayable",
      "type": "function"
    },
    {
      "inputs": [
        {
          "internalType": "string",
          "name": "Name",
          "type": "string"
        },
        {
          "internalType": "string",
          "name": "skills",
          "type": "string"
        },
        {
          "internalType": "string",
          "name": "information",
          "type": "string"
        },
        {
          "internalType": "uint256",
          "name": "averageOfprice",
          "type": "uint256"
        }
      ],
      "name": "addProject",
      "outputs": [
        {
          "internalType": "bool",
          "name": "",
          "type": "bool"
        }
      ],
      "stateMutability": "payable",
      "type": "function",
      "payable": true
    },
    {
      "inputs": [
        {
          "internalType": "address",
          "name": "_customerAddress",
          "type": "address"
        },
        {
          "internalType": "uint256",
          "name": "day",
          "type": "uint256"
        },
        {
          "internalType": "uint256",
          "name": "price",
          "type": "uint256"
        },
        {
          "internalType": "string",
          "name": "information",
          "type": "string"
        }
      ],
      "name": "chooseToWork",
      "outputs": [
        {
          "internalType": "string",
          "name": "",
          "type": "string"
        }
      ],
      "stateMutability": "nonpayable",
      "type": "function"
    },
    {
      "inputs": [
        {
          "internalType": "address payable",
          "name": "_engineerAddress",
          "type": "address"
        }
      ],
      "name": "accepteCustomer",
      "outputs": [
        {
          "internalType": "bool",
          "name": "",
          "type": "bool"
        }
      ],
      "stateMutability": "payable",
      "type": "function",
      "payable": true
    },
    {
      "inputs": [
        {
          "internalType": "string",
          "name": "_name",
          "type": "string"
        },
        {
          "internalType": "string",
          "name": "_skills",
          "type": "string"
        },
        {
          "internalType": "string",
          "name": "_information",
          "type": "string"
        },
        {
          "internalType": "uint256",
          "name": "_averageOfprice",
          "type": "uint256"
        }
      ],
      "name": "EditProject",
      "outputs": [
        {
          "internalType": "string",
          "name": "",
          "type": "string"
        }
      ],
      "stateMutability": "nonpayable",
      "type": "function"
    },
    {
      "inputs": [
        {
          "internalType": "address",
          "name": "_customerAddress",
          "type": "address"
        }
      ],
      "name": "getProject",
      "outputs": [
        {
          "internalType": "string",
          "name": "Name",
          "type": "string"
        },
        {
          "internalType": "string",
          "name": "skills",
          "type": "string"
        },
        {
          "internalType": "string",
          "name": "information",
          "type": "string"
        },
        {
          "internalType": "uint256",
          "name": "averageOfprice",
          "type": "uint256"
        }
      ],
      "stateMutability": "view",
      "type": "function",
      "constant": true
    },
    {
      "inputs": [
        {
          "internalType": "address",
          "name": "_customerAddress",
          "type": "address"
        }
      ],
      "name": "deleteProject",
      "outputs": [
        {
          "internalType": "string",
          "name": "",
          "type": "string"
        }
      ],
      "stateMutability": "nonpayable",
      "type": "function"
    },
    {
      "inputs": [],
      "name": "_passthevalue",
      "outputs": [
        {
          "internalType": "string",
          "name": "",
          "type": "string"
        }
      ],
      "stateMutability": "nonpayable",
      "type": "function"
    },
    {
      "inputs": [],
      "name": "getBalance",
      "outputs": [
        {
          "internalType": "uint256",
          "name": "",
          "type": "uint256"
        }
      ],
      "stateMutability": "view",
      "type": "function",
      "constant": true
    }
  ],
  "bytecode": "0x6080604052600560003373ffffffffffffffffffffffffffffffffffffffff1673ffffffffffffffffffffffffffffffffffffffff16815260200190815260200160002060000160009054906101000a900473ffffffffffffffffffffffffffffffffffffffff16600260006101000a81548173ffffffffffffffffffffffffffffffffffffffff021916908373ffffffffffffffffffffffffffffffffffffffff1602179055503480156100b357600080fd5b50336000806101000a81548173ffffffffffffffffffffffffffffffffffffffff021916908373ffffffffffffffffffffffffffffffffffffffff16021790555060006001819055506139d18061010b6000396000f3fe6080604052600436106100f35760003560e01c806378e4f9341161008a578063a871ca5d11610059578063a871ca5d14610bbf578063aede609814610cbd578063cea1a67a14610f36578063f987070514610fc6576100f3565b806378e4f93414610733578063840e78fd146108a857806388bc815014610a805780638da5cb5b14610b7e576100f3565b8063336989ae116100c6578063336989ae146104ef5780633d8f426d146105d6578063413bf38f14610630578063553df02114610708576100f3565b806303bc470d146100f857806312065fe0146101f157806320943f7a1461021c5780632200e21e14610425575b600080fd5b34801561010457600080fd5b506101476004803603602081101561011b57600080fd5b81019080803573ffffffffffffffffffffffffffffffffffffffff16906020019092919050505061116f565b604051808473ffffffffffffffffffffffffffffffffffffffff1681526020018060200183600381111561017757fe5b8152602001828103825284818151815260200191508051906020019080838360005b838110156101b4578082015181840152602081019050610199565b50505050905090810190601f1680156101e15780820380516001836020036101000a031916815260200191505b5094505050505060405180910390f35b3480156101fd57600080fd5b5061020661125e565b6040518082815260200191505060405180910390f35b61040d6004803603608081101561023257600080fd5b810190808035906020019064010000000081111561024f57600080fd5b82018360208201111561026157600080fd5b8035906020019184600183028401116401000000008311171561028357600080fd5b91908080601f016020809104026020016040519081016040528093929190818152602001838380828437600081840152601f19601f820116905080830192505050505050509192919290803590602001906401000000008111156102e657600080fd5b8201836020820111156102f857600080fd5b8035906020019184600183028401116401000000008311171561031a57600080fd5b91908080601f016020809104026020016040519081016040528093929190818152602001838380828437600081840152601f19601f8201169050808301925050505050505091929192908035906020019064010000000081111561037d57600080fd5b82018360208201111561038f57600080fd5b803590602001918460018302840111640100000000831117156103b157600080fd5b91908080601f016020809104026020016040519081016040528093929190818152602001838380828437600081840152601f19601f82011690508083019250505050505050919291929080359060200190929190505050611266565b60405180821515815260200191505060405180910390f35b34801561043157600080fd5b506104746004803603602081101561044857600080fd5b81019080803573ffffffffffffffffffffffffffffffffffffffff1690602001909291905050506115c5565b6040518080602001828103825283818151815260200191508051906020019080838360005b838110156104b4578082015181840152602081019050610499565b50505050905090810190601f1680156104e15780820380516001836020036101000a031916815260200191505b509250505060405180910390f35b3480156104fb57600080fd5b5061053e6004803603602081101561051257600080fd5b81019080803573ffffffffffffffffffffffffffffffffffffffff169060200190929190505050611885565b604051808373ffffffffffffffffffffffffffffffffffffffff16815260200180602001828103825283818151815260200191508051906020019080838360005b8381101561059a57808201518184015260208101905061057f565b50505050905090810190601f1680156105c75780820380516001836020036101000a031916815260200191505b50935050505060405180910390f35b610618600480360360208110156105ec57600080fd5b81019080803573ffffffffffffffffffffffffffffffffffffffff169060200190929190505050611961565b60405180821515815260200191505060405180910390f35b34801561063c57600080fd5b5061067f6004803603602081101561065357600080fd5b81019080803573ffffffffffffffffffffffffffffffffffffffff169060200190929190505050611fca565b6040518084815260200183815260200180602001828103825283818151815260200191508051906020019080838360005b838110156106cb5780820151818401526020810190506106b0565b50505050905090810190601f1680156106f85780820380516001836020036101000a031916815260200191505b5094505050505060405180910390f35b34801561071457600080fd5b5061071d61208c565b6040518082815260200191505060405180910390f35b34801561073f57600080fd5b5061082d6004803603608081101561075657600080fd5b81019080803573ffffffffffffffffffffffffffffffffffffffff1690602001909291908035906020019092919080359060200190929190803590602001906401000000008111156107a757600080fd5b8201836020820111156107b957600080fd5b803590602001918460018302840111640100000000831117156107db57600080fd5b91908080601f016020809104026020016040519081016040528093929190818152602001838380828437600081840152601f19601f820116905080830192505050505050509192919290505050612092565b6040518080602001828103825283818151815260200191508051906020019080838360005b8381101561086d578082015181840152602081019050610852565b50505050905090810190601f16801561089a5780820380516001836020036101000a031916815260200191505b509250505060405180910390f35b3480156108b457600080fd5b506108f7600480360360208110156108cb57600080fd5b81019080803573ffffffffffffffffffffffffffffffffffffffff1690602001909291905050506125e2565b604051808773ffffffffffffffffffffffffffffffffffffffff1681526020018060200186600381111561092757fe5b81526020018060200180602001858152602001848103845289818151815260200191508051906020019080838360005b83811015610972578082015181840152602081019050610957565b50505050905090810190601f16801561099f5780820380516001836020036101000a031916815260200191505b50848103835287818151815260200191508051906020019080838360005b838110156109d85780820151818401526020810190506109bd565b50505050905090810190601f168015610a055780820380516001836020036101000a031916815260200191505b50848103825286818151815260200191508051906020019080838360005b83811015610a3e578082015181840152602081019050610a23565b50505050905090810190601f168015610a6b5780820380516001836020036101000a031916815260200191505b50995050505050505050505060405180910390f35b348015610a8c57600080fd5b50610b6660048036036040811015610aa357600080fd5b81019080803573ffffffffffffffffffffffffffffffffffffffff16906020019092919080359060200190640100000000811115610ae057600080fd5b820183602082011115610af257600080fd5b80359060200191846001830284011164010000000083111715610b1457600080fd5b91908080601f016020809104026020016040519081016040528093929190818152602001838380828437600081840152601f19601f820116905080830192505050505050509192919290505050612813565b60405180821515815260200191505060405180910390f35b348015610b8a57600080fd5b50610b93612a2e565b604051808273ffffffffffffffffffffffffffffffffffffffff16815260200191505060405180910390f35b348015610bcb57600080fd5b50610ca560048036036040811015610be257600080fd5b81019080803573ffffffffffffffffffffffffffffffffffffffff16906020019092919080359060200190640100000000811115610c1f57600080fd5b820183602082011115610c3157600080fd5b80359060200191846001830284011164010000000083111715610c5357600080fd5b91908080601f016020809104026020016040519081016040528093929190818152602001838380828437600081840152601f19601f820116905080830192505050505050509192919290505050612a52565b60405180821515815260200191505060405180910390f35b348015610cc957600080fd5b50610ebb60048036036080811015610ce057600080fd5b8101908080359060200190640100000000811115610cfd57600080fd5b820183602082011115610d0f57600080fd5b80359060200191846001830284011164010000000083111715610d3157600080fd5b91908080601f016020809104026020016040519081016040528093929190818152602001838380828437600081840152601f19601f82011690508083019250505050505050919291929080359060200190640100000000811115610d9457600080fd5b820183602082011115610da657600080fd5b80359060200191846001830284011164010000000083111715610dc857600080fd5b91908080601f016020809104026020016040519081016040528093929190818152602001838380828437600081840152601f19601f82011690508083019250505050505050919291929080359060200190640100000000811115610e2b57600080fd5b820183602082011115610e3d57600080fd5b80359060200191846001830284011164010000000083111715610e5f57600080fd5b91908080601f016020809104026020016040519081016040528093929190818152602001838380828437600081840152601f19601f82011690508083019250505050505050919291929080359060200190929190505050612cc5565b6040518080602001828103825283818151815260200191508051906020019080838360005b83811015610efb578082015181840152602081019050610ee0565b50505050905090810190601f168015610f285780820380516001836020036101000a031916815260200191505b509250505060405180910390f35b348015610f4257600080fd5b50610f4b613265565b6040518080602001828103825283818151815260200191508051906020019080838360005b83811015610f8b578082015181840152602081019050610f70565b50505050905090810190601f168015610fb85780820380516001836020036101000a031916815260200191505b509250505060405180910390f35b348015610fd257600080fd5b5061101560048036036020811015610fe957600080fd5b81019080803573ffffffffffffffffffffffffffffffffffffffff169060200190929190505050613438565b60405180806020018060200180602001858152602001848103845288818151815260200191508051906020019080838360005b83811015611063578082015181840152602081019050611048565b50505050905090810190601f1680156110905780820380516001836020036101000a031916815260200191505b50848103835287818151815260200191508051906020019080838360005b838110156110c95780820151818401526020810190506110ae565b50505050905090810190601f1680156110f65780820380516001836020036101000a031916815260200191505b50848103825286818151815260200191508051906020019080838360005b8381101561112f578082015181840152602081019050611114565b50505050905090810190601f16801561115c5780820380516001836020036101000a031916815260200191505b5097505050505050505060405180910390f35b60056020528060005260406000206000915090508060000160009054906101000a900473ffffffffffffffffffffffffffffffffffffffff1690806001018054600181600116156101000203166002900480601f0160208091040260200160405190810160405280929190818152602001828054600181600116156101000203166002900480156112415780601f1061121657610100808354040283529160200191611241565b820191906000526020600020905b81548152906001019060200180831161122457829003601f168201915b5050505050908060020160009054906101000a900460ff16905083565b600047905090565b6000338073ffffffffffffffffffffffffffffffffffffffff163373ffffffffffffffffffffffffffffffffffffffff16146112a157600080fd5b600073ffffffffffffffffffffffffffffffffffffffff16600660003373ffffffffffffffffffffffffffffffffffffffff1673ffffffffffffffffffffffffffffffffffffffff16815260200190815260200160002060000160009054906101000a900473ffffffffffffffffffffffffffffffffffffffff1673ffffffffffffffffffffffffffffffffffffffff16146113a5576040517f08c379a000000000000000000000000000000000000000000000000000000000815260040180806020018281038252601e8152602001807f746869732070726f6a65637420616c72656164792069732065786973742e000081525060200191505060405180910390fd5b823410156113fe576040517f08c379a000000000000000000000000000000000000000000000000000000000815260040180806020018281038252603c81526020018061393f603c913960400191505060405180910390fd5b6040518060c001604052803373ffffffffffffffffffffffffffffffffffffffff1681526020018781526020016000600381111561143857fe5b815260200186815260200185815260200184815250600660003373ffffffffffffffffffffffffffffffffffffffff1673ffffffffffffffffffffffffffffffffffffffff16815260200190815260200160002060008201518160000160006101000a81548173ffffffffffffffffffffffffffffffffffffffff021916908373ffffffffffffffffffffffffffffffffffffffff16021790555060208201518160010190805190602001906114ef929190613893565b5060408201518160020160006101000a81548160ff0219169083600381111561151457fe5b02179055506060820151816003019080519060200190611535929190613893565b506080820151816004019080519060200190611552929190613893565b5060a0820151816005015590505060018054016001819055507fc90a5997158125d11f471581d0f9c698a86d5f9b21d81eccee8f78d4d37327c133604051808273ffffffffffffffffffffffffffffffffffffffff16815260200191505060405180910390a16001915050949350505050565b6060338073ffffffffffffffffffffffffffffffffffffffff16600460008373ffffffffffffffffffffffffffffffffffffffff1673ffffffffffffffffffffffffffffffffffffffff16815260200190815260200160002060000160009054906101000a900473ffffffffffffffffffffffffffffffffffffffff1673ffffffffffffffffffffffffffffffffffffffff16146116cb576040517f08c379a000000000000000000000000000000000000000000000000000000000815260040180806020018281038252601d8152602001807f74686973206163636f756e74206973206e6f7420437573746f6d65722e00000081525060200191505060405180910390fd5b6000600660008573ffffffffffffffffffffffffffffffffffffffff1673ffffffffffffffffffffffffffffffffffffffff168152602001908152602001600020905060008160000160006101000a81548173ffffffffffffffffffffffffffffffffffffffff021916908373ffffffffffffffffffffffffffffffffffffffff1602179055506040518060400160405280600181526020017f200000000000000000000000000000000000000000000000000000000000000081525081600101908051906020019061179f929190613893565b506040518060400160405280600181526020017f20000000000000000000000000000000000000000000000000000000000000008152508160030190805190602001906117ed929190613893565b506040518060400160405280600181526020017f200000000000000000000000000000000000000000000000000000000000000081525081600401908051906020019061183b929190613893565b50600081600501819055506040518060400160405280601681526020017f7468652070726f6a656374207761732064656c6574650000000000000000000081525092505050919050565b60046020528060005260406000206000915090508060000160009054906101000a900473ffffffffffffffffffffffffffffffffffffffff1690806001018054600181600116156101000203166002900480601f0160208091040260200160405190810160405280929190818152602001828054600181600116156101000203166002900480156119575780601f1061192c57610100808354040283529160200191611957565b820191906000526020600020905b81548152906001019060200180831161193a57829003601f168201915b5050505050905082565b6000338073ffffffffffffffffffffffffffffffffffffffff16600460008373ffffffffffffffffffffffffffffffffffffffff1673ffffffffffffffffffffffffffffffffffffffff16815260200190815260200160002060000160009054906101000a900473ffffffffffffffffffffffffffffffffffffffff1673ffffffffffffffffffffffffffffffffffffffff1614611a67576040517f08c379a000000000000000000000000000000000000000000000000000000000815260040180806020018281038252601d8152602001807f74686973206163636f756e74206973206e6f7420437573746f6d65722e00000081525060200191505060405180910390fd5b33600073ffffffffffffffffffffffffffffffffffffffff16600660008373ffffffffffffffffffffffffffffffffffffffff1673ffffffffffffffffffffffffffffffffffffffff16815260200190815260200160002060000160009054906101000a900473ffffffffffffffffffffffffffffffffffffffff1673ffffffffffffffffffffffffffffffffffffffff161415611b6d576040517f08c379a000000000000000000000000000000000000000000000000000000000815260040180806020018281038252601a8152602001807f5468652070726f6a656374206973206e6f74206e6f7468696e6700000000000081525060200191505060405180910390fd5b60006003811115611b7a57fe5b600660008373ffffffffffffffffffffffffffffffffffffffff1673ffffffffffffffffffffffffffffffffffffffff16815260200190815260200160002060020160009054906101000a900460ff166003811115611bd557fe5b14611c48576040517f08c379a000000000000000000000000000000000000000000000000000000000815260040180806020018281038252601e8152602001807f7468652070726f6a6563742068617320616c726561647920646f6e652e2e000081525060200191505060405180910390fd5b8373ffffffffffffffffffffffffffffffffffffffff16600560008673ffffffffffffffffffffffffffffffffffffffff1673ffffffffffffffffffffffffffffffffffffffff16815260200190815260200160002060000160009054906101000a900473ffffffffffffffffffffffffffffffffffffffff1673ffffffffffffffffffffffffffffffffffffffff1614611d4b576040517f08c379a000000000000000000000000000000000000000000000000000000000815260040180806020018281038252601f8152602001807f74686973206163636f756e74206973206e6f7420616e20656e67696e6565720081525060200191505060405180910390fd5b3373ffffffffffffffffffffffffffffffffffffffff16600460003373ffffffffffffffffffffffffffffffffffffffff1673ffffffffffffffffffffffffffffffffffffffff16815260200190815260200160002060000160009054906101000a900473ffffffffffffffffffffffffffffffffffffffff1673ffffffffffffffffffffffffffffffffffffffff1614611e4e576040517f08c379a000000000000000000000000000000000000000000000000000000000815260040180806020018281038252601b8152602001807f7468697320637573746f6d6572206973206e6f742045786973742e000000000081525060200191505060405180910390fd5b6000600660003373ffffffffffffffffffffffffffffffffffffffff1673ffffffffffffffffffffffffffffffffffffffff168152602001908152602001600020905060018160020160006101000a81548160ff02191690836003811115611eb257fe5b02179055506000600360008773ffffffffffffffffffffffffffffffffffffffff1673ffffffffffffffffffffffffffffffffffffffff16815260200190815260200160002090506000600560008873ffffffffffffffffffffffffffffffffffffffff1673ffffffffffffffffffffffffffffffffffffffff168152602001908152602001600020905060008160000160009054906101000a900473ffffffffffffffffffffffffffffffffffffffff1690508073ffffffffffffffffffffffffffffffffffffffff166108fc670de0b6b3a76400008560000154029081150290604051600060405180830381858888f19350505050158015611fba573d6000803e3d6000fd5b5060019650505050505050919050565b6003602052806000526040600020600091509050806000015490806001015490806002018054600181600116156101000203166002900480601f0160208091040260200160405190810160405280929190818152602001828054600181600116156101000203166002900480156120825780601f1061205757610100808354040283529160200191612082565b820191906000526020600020905b81548152906001019060200180831161206557829003601f168201915b5050505050905083565b60015481565b6060338073ffffffffffffffffffffffffffffffffffffffff16600560008373ffffffffffffffffffffffffffffffffffffffff1673ffffffffffffffffffffffffffffffffffffffff16815260200190815260200160002060000160009054906101000a900473ffffffffffffffffffffffffffffffffffffffff1673ffffffffffffffffffffffffffffffffffffffff1614612198576040517f08c379a00000000000000000000000000000000000000000000000000000000081526004018080602001828103825260158152602001807f63616c6c65722069736e6f7420456e67696e656572000000000000000000000081525060200191505060405180910390fd5b85600073ffffffffffffffffffffffffffffffffffffffff16600660008373ffffffffffffffffffffffffffffffffffffffff1673ffffffffffffffffffffffffffffffffffffffff16815260200190815260200160002060000160009054906101000a900473ffffffffffffffffffffffffffffffffffffffff1673ffffffffffffffffffffffffffffffffffffffff16141561229e576040517f08c379a000000000000000000000000000000000000000000000000000000000815260040180806020018281038252601a8152602001807f5468652070726f6a656374206973206e6f74206e6f7468696e6700000000000081525060200191505060405180910390fd5b600060038111156122ab57fe5b600660008373ffffffffffffffffffffffffffffffffffffffff1673ffffffffffffffffffffffffffffffffffffffff16815260200190815260200160002060020160009054906101000a900460ff16600381111561230657fe5b14612379576040517f08c379a000000000000000000000000000000000000000000000000000000000815260040180806020018281038252601e8152602001807f7468652070726f6a6563742068617320616c726561647920646f6e652e2e000081525060200191505060405180910390fd5b6002600381111561238657fe5b600560003373ffffffffffffffffffffffffffffffffffffffff1673ffffffffffffffffffffffffffffffffffffffff16815260200190815260200160002060020160009054906101000a900460ff1660038111156123e157fe5b14612454576040517f08c379a000000000000000000000000000000000000000000000000000000000815260040180806020018281038252601e8152602001807f74686973206163636f756e7420616c7265616479207365742076616c7565000081525060200191505060405180910390fd5b604051806060016040528086815260200187815260200185815250600360003373ffffffffffffffffffffffffffffffffffffffff1673ffffffffffffffffffffffffffffffffffffffff168152602001908152602001600020600082015181600001556020820151816001015560408201518160020190805190602001906124de929190613893565b509050506003808111156124ee57fe5b600560003373ffffffffffffffffffffffffffffffffffffffff1673ffffffffffffffffffffffffffffffffffffffff16815260200190815260200160002060020160009054906101000a900460ff16600381111561254957fe5b50507f140ba8a8a70ea6896f415e662fe4a3493133537db4dcd56586070e42253d9b433386604051808373ffffffffffffffffffffffffffffffffffffffff1681526020018281526020019250505060405180910390a16040518060400160405280601481526020017f7365742076616c7565206f6e2070726f6a65637400000000000000000000000081525092505050949350505050565b60066020528060005260406000206000915090508060000160009054906101000a900473ffffffffffffffffffffffffffffffffffffffff1690806001018054600181600116156101000203166002900480601f0160208091040260200160405190810160405280929190818152602001828054600181600116156101000203166002900480156126b45780601f10612689576101008083540402835291602001916126b4565b820191906000526020600020905b81548152906001019060200180831161269757829003601f168201915b5050505050908060020160009054906101000a900460ff1690806003018054600181600116156101000203166002900480601f0160208091040260200160405190810160405280929190818152602001828054600181600116156101000203166002900480156127655780601f1061273a57610100808354040283529160200191612765565b820191906000526020600020905b81548152906001019060200180831161274857829003601f168201915b505050505090806004018054600181600116156101000203166002900480601f0160208091040260200160405190810160405280929190818152602001828054600181600116156101000203166002900480156128035780601f106127d857610100808354040283529160200191612803565b820191906000526020600020905b8154815290600101906020018083116127e657829003601f168201915b5050505050908060050154905086565b60008073ffffffffffffffffffffffffffffffffffffffff16600460008573ffffffffffffffffffffffffffffffffffffffff1673ffffffffffffffffffffffffffffffffffffffff16815260200190815260200160002060000160009054906101000a900473ffffffffffffffffffffffffffffffffffffffff1673ffffffffffffffffffffffffffffffffffffffff16146128fb576040517f08c379a000000000000000000000000000000000000000000000000000000000815260040180806020018281038252602181526020018061397b6021913960400191505060405180910390fd5b60405180604001604052808473ffffffffffffffffffffffffffffffffffffffff16815260200183815250600460008573ffffffffffffffffffffffffffffffffffffffff1673ffffffffffffffffffffffffffffffffffffffff16815260200190815260200160002060008201518160000160006101000a81548173ffffffffffffffffffffffffffffffffffffffff021916908373ffffffffffffffffffffffffffffffffffffffff16021790555060208201518160010190805190602001906129c8929190613893565b509050507f67db2594560e9767e8eec7f82a7ee7777909a9c55f1dc6ba490d7ef45ffcecfd83604051808273ffffffffffffffffffffffffffffffffffffffff16815260200191505060405180910390a160018054016001819055506001905092915050565b60008054906101000a900473ffffffffffffffffffffffffffffffffffffffff1681565b60008073ffffffffffffffffffffffffffffffffffffffff16600560008573ffffffffffffffffffffffffffffffffffffffff1673ffffffffffffffffffffffffffffffffffffffff16815260200190815260200160002060000160009054906101000a900473ffffffffffffffffffffffffffffffffffffffff1673ffffffffffffffffffffffffffffffffffffffff1614612b57576040517f08c379a000000000000000000000000000000000000000000000000000000000815260040180806020018281038252601f8152602001807f74686973206164647265737320616c7265616479207265676973747265642e0081525060200191505060405180910390fd5b60405180606001604052808473ffffffffffffffffffffffffffffffffffffffff16815260200183815260200160026003811115612b9157fe5b815250600560008573ffffffffffffffffffffffffffffffffffffffff1673ffffffffffffffffffffffffffffffffffffffff16815260200190815260200160002060008201518160000160006101000a81548173ffffffffffffffffffffffffffffffffffffffff021916908373ffffffffffffffffffffffffffffffffffffffff1602179055506020820151816001019080519060200190612c36929190613893565b5060408201518160020160006101000a81548160ff02191690836003811115612c5b57fe5b02179055509050507f9cd3b8c22eaf60823d8598cfb11eba80932bdb7e58442e690e6368677ac8159383604051808273ffffffffffffffffffffffffffffffffffffffff16815260200191505060405180910390a160018054016001819055506001905092915050565b6060338073ffffffffffffffffffffffffffffffffffffffff163373ffffffffffffffffffffffffffffffffffffffff1614612d0057600080fd5b33600073ffffffffffffffffffffffffffffffffffffffff16600660008373ffffffffffffffffffffffffffffffffffffffff1673ffffffffffffffffffffffffffffffffffffffff16815260200190815260200160002060000160009054906101000a900473ffffffffffffffffffffffffffffffffffffffff1673ffffffffffffffffffffffffffffffffffffffff161415612e06576040517f08c379a000000000000000000000000000000000000000000000000000000000815260040180806020018281038252601a8152602001807f5468652070726f6a656374206973206e6f74206e6f7468696e6700000000000081525060200191505060405180910390fd5b60006003811115612e1357fe5b600660008373ffffffffffffffffffffffffffffffffffffffff1673ffffffffffffffffffffffffffffffffffffffff16815260200190815260200160002060020160009054906101000a900460ff166003811115612e6e57fe5b14612ee1576040517f08c379a000000000000000000000000000000000000000000000000000000000815260040180806020018281038252601e8152602001807f7468652070726f6a6563742068617320616c726561647920646f6e652e2e000081525060200191505060405180910390fd5b6000600660003373ffffffffffffffffffffffffffffffffffffffff1673ffffffffffffffffffffffffffffffffffffffff1681526020019081526020016000206040518060c00160405290816000820160009054906101000a900473ffffffffffffffffffffffffffffffffffffffff1673ffffffffffffffffffffffffffffffffffffffff1673ffffffffffffffffffffffffffffffffffffffff168152602001600182018054600181600116156101000203166002900480601f01602080910402602001604051908101604052809291908181526020018280546001816001161561010002031660029004801561301c5780601f10612ff15761010080835404028352916020019161301c565b820191906000526020600020905b815481529060010190602001808311612fff57829003601f168201915b505050505081526020016002820160009054906101000a900460ff16600381111561304357fe5b600381111561304e57fe5b8152602001600382018054600181600116156101000203166002900480601f0160208091040260200160405190810160405280929190818152602001828054600181600116156101000203166002900480156130eb5780601f106130c0576101008083540402835291602001916130eb565b820191906000526020600020905b8154815290600101906020018083116130ce57829003601f168201915b50505050508152602001600482018054600181600116156101000203166002900480601f01602080910402602001604051908101604052809291908181526020018280546001816001161561010002031660029004801561318d5780601f106131625761010080835404028352916020019161318d565b820191906000526020600020905b81548152906001019060200180831161317057829003601f168201915b50505050508152602001600582015481525050905033816000019073ffffffffffffffffffffffffffffffffffffffff16908173ffffffffffffffffffffffffffffffffffffffff16815250508781602001819052506000816040019060038111156131f557fe5b9081600381111561320257fe5b81525050868160600181905250858160800181905250848160a00181815250506040518060400160405280601681526020017f7468652070726f6a6563742077617320757064617465000000000000000000008152509350505050949350505050565b60606000600660003373ffffffffffffffffffffffffffffffffffffffff1673ffffffffffffffffffffffffffffffffffffffff1681526020019081526020016000209050600160038111156132b757fe5b8160020160009054906101000a900460ff1660038111156132d457fe5b14613347576040517f08c379a000000000000000000000000000000000000000000000000000000000815260040180806020018281038252601b8152602001807f746869732070726f6a65637420776173206e6f742066696e697368000000000081525060200191505060405180910390fd5b6000600460003373ffffffffffffffffffffffffffffffffffffffff1673ffffffffffffffffffffffffffffffffffffffff16815260200190815260200160002060000160009054906101000a900473ffffffffffffffffffffffffffffffffffffffff16905060004790508173ffffffffffffffffffffffffffffffffffffffff166108fc829081150290604051600060405180830381858888f193505050501580156133f9573d6000803e3d6000fd5b506040518060400160405280601381526020017f7468652076616c75652069732072657475726e00000000000000000000000000815250935050505090565b60608060606000338073ffffffffffffffffffffffffffffffffffffffff163373ffffffffffffffffffffffffffffffffffffffff161461347857600080fd5b85600073ffffffffffffffffffffffffffffffffffffffff16600660008373ffffffffffffffffffffffffffffffffffffffff1673ffffffffffffffffffffffffffffffffffffffff16815260200190815260200160002060000160009054906101000a900473ffffffffffffffffffffffffffffffffffffffff1673ffffffffffffffffffffffffffffffffffffffff16141561357e576040517f08c379a000000000000000000000000000000000000000000000000000000000815260040180806020018281038252601a8152602001807f5468652070726f6a656374206973206e6f74206e6f7468696e6700000000000081525060200191505060405180910390fd5b6000600381111561358b57fe5b600660008373ffffffffffffffffffffffffffffffffffffffff1673ffffffffffffffffffffffffffffffffffffffff16815260200190815260200160002060020160009054906101000a900460ff1660038111156135e657fe5b14613659576040517f08c379a000000000000000000000000000000000000000000000000000000000815260040180806020018281038252601e8152602001807f7468652070726f6a6563742068617320616c726561647920646f6e652e2e000081525060200191505060405180910390fd5b6000600660008973ffffffffffffffffffffffffffffffffffffffff1673ffffffffffffffffffffffffffffffffffffffff16815260200190815260200160002090508060010181600301826004018360050154838054600181600116156101000203166002900480601f0160208091040260200160405190810160405280929190818152602001828054600181600116156101000203166002900480156137425780601f1061371757610100808354040283529160200191613742565b820191906000526020600020905b81548152906001019060200180831161372557829003601f168201915b50505050509350828054600181600116156101000203166002900480601f0160208091040260200160405190810160405280929190818152602001828054600181600116156101000203166002900480156137de5780601f106137b3576101008083540402835291602001916137de565b820191906000526020600020905b8154815290600101906020018083116137c157829003601f168201915b50505050509250818054600181600116156101000203166002900480601f01602080910402602001604051908101604052809291908181526020018280546001816001161561010002031660029004801561387a5780601f1061384f5761010080835404028352916020019161387a565b820191906000526020600020905b81548152906001019060200180831161385d57829003601f168201915b5050505050915096509650965096505050509193509193565b828054600181600116156101000203166002900490600052602060002090601f0160209004810192826138c95760008555613910565b82601f106138e257805160ff1916838001178555613910565b82800160010185558215613910579182015b8281111561390f5782518255916020019190600101906138f4565b5b50905061391d9190613921565b5090565b5b8082111561393a576000816000905550600101613922565b509056fe7468652076616c756520796f752073656e642073686f756c64206265206c657373207468616e20796f75722063757272656e7420617665726167652e74686973206164647265737320697320616c726561647920726567697374726564a264697066735822122020f36f5333c38763381d9c6a9ec440c7f054575fc520a7efa6a2995757c578e964736f6c63430007060033",
  "immutableReferences": {},
  "source": "\n// SPDX-License-Identifier: MIT\npragma solidity >=0.4.24 <0.9.0;\n// @title supply chain in small daily business \n/// @author veeda baha - <veedabaha@gmail.com>\n/// Allows the customer to add their project or works in to the network.\n/// Projects can be accessed by customers and Engineers .\n/// The customers can be shared or add ,get,edit and delete their projects \n/// The engineers can allow to see the record of the project.\n/// after the Engineer select a project for doing that set a value or price to that project.\n/// The custommer can see the price or value that Engineer add in to the system.\n/// The finilly the customer can accepte one of thoes values and payed the ether to engineer.\n\n import \"./InterfaceOfCuntract.sol\";\n\ncontract SmallBusiness is InterfaceOfCuntract{\n    \n    //  variables\n    address public owner ;\n    uint public deal;\n    address En =Engineers[msg.sender].engineerAddress;\n\n    //enum\n    enum State{\n      forSell,\n      Finish,\n      primsion,\n      unprmision\n    }\n  \n    //struct of customers\n    \n    struct customer{\n        address payable customerAddress;\n        string Name;\n    }\n    \n    //struct of Engineers\n    struct Engineer{\n      address payable engineerAddress;\n        string Name;\n        State state;\n       \n    }\n    \n    //struct of projects\n   struct Project{\n       address owner;\n        string Name;\n        State state;\n        string skills;\n        string information;\n        uint averageOfprice;\n     \n    }\n\n    // struct of offer\n    struct offer{\n        uint256 price;\n        uint256 day;\n        string moreInform;\n    }\n    \n    /* \n   * Events\n   */\n      /// @notice Emitted when a Engineer is registred \n    /// @param _address Engineer address\n    event logAddCustomer(address _address);\n\n    /// @notice Emitted when a customer is registred \n    /// @param _address customer address\n    event logAddEngineers(address _address);\n\n    /// @notice Emitted when a Project is posted \n    /// @param _customerAddress is the address of Project\n    event PostProject(address _customerAddress);\n\n    /// @notice Emitted when Engineer add a price for working on project \n    /// @param  _customerAddress is the address of Project\n    /// @param price is the price that customer send to Engineer\n    event chooseTheProject(address _customerAddress , uint price);\n  \n    //mapping\n    \n    // store the offers of the Engineers with their project id\n    mapping( address => offer) public offers;\n    \n    //store struct of customers in mapping with their addresses\n    mapping(address => customer) public customers;\n    \n    //store struct of Engineers in mapping with their addresses\n    mapping (address=> Engineer) public Engineers;\n    \n     //store struct of projects in mapping with their addresses\n    mapping (address => Project) public projects;\n    \n    /* \n   * Modifiers\n   */\n\n    // Create a modifer, isOwner that checks if the msg.sender is the owner of the contract\n\n    modifier verifyCaller (address _address) { \n    require (msg.sender == _address); \n    _;\n    }\n    \n    modifier isOwner () { \n    require (owner == msg.sender,\n    \"Caller is not owner\"); \n    _;\n    }\n \n    modifier isCustomer(address _address){\n        require( customers[_address].customerAddress == _address,\n        \"this account is not Customer.\");\n        _;\n    }\n    \n    modifier isEngineer(address _Engineer){\n        require(Engineers[_Engineer].engineerAddress== _Engineer,\n        \"caller isnot Engineer\");\n        _;\n    }\n\n    modifier forSell(address _customerAddress){\n       require(projects[_customerAddress].owner != address(0), \n       \"The project is not nothing\");\n       require(projects[_customerAddress].state == State.forSell,\n       \"the project has already done..\");\n       _;\n    }\n    \n    modifier Finish(address _customerAddress){\n       require(projects[_customerAddress].owner != address(0), \n       \"The project is not nothing\");\n       require(projects[_customerAddress].state == State.Finish,\n       \"this Project has already been for sell\");\n       _;\n    }\n    modifier verifyState(){\n        require(Engineers[msg.sender].state == State.primsion,\n        \"this account already set value\");\n        _;\n    }\n\n    constructor() {\n        owner = msg.sender;\n        deal=0;\n    }\n    \n    //add customer`s address in to mapping\n    //add the parameters of customer in to struct\n    \n    function addCustomer(address payable customerAddress , \n    string memory yourName) \n    public override \n    returns(bool) {\n        require(customers[customerAddress].customerAddress == address(0),\n        \"this address is already registred\");\n        customers[customerAddress]=customer({\n            customerAddress : customerAddress,\n            Name : yourName\n        });\n        emit logAddCustomer(customerAddress);\n        deal = deal + 1;\n        return true;\n    } \n    \n    \n    //add Engineers`s address in to mapping\n    //add more details in to Engineer`s struct\n    \n    function addEngineer(address payable _engineerAddress,string memory _yourName) public override returns(bool){\n        require(Engineers[_engineerAddress].engineerAddress == address(0),\n        \"this address already registred.\");\n        Engineers[_engineerAddress] = Engineer({\n            engineerAddress : _engineerAddress,\n            Name :_yourName,\n            state :State.primsion\n        });\n    emit logAddEngineers(_engineerAddress);\n     deal = deal + 1;\n    return true;\n\n    }\n    \n    ///add Project`s id in to mapping\n    ///check the state of project should be forSell\n    ///check the modifier is customer to call that function \n    ///the customer should call that function\n    \n    function addProject(string memory Name,\n    string memory skills,string memory information\n    ,uint averageOfprice ) \n    public override payable \n    verifyCaller(msg.sender) \n    returns(bool){\n        require(projects[msg.sender].owner == address(0), \n        \"this project already is exist.\");\n        require(msg.value>=averageOfprice,\n        \"the value you send should be less than your current average.\");\n        projects[msg.sender] = Project({\n            owner:msg.sender,\n            Name:Name,\n            skills:skills,\n            information:information,\n            averageOfprice:averageOfprice,\n            state:State.forSell\n           \n             });\n        deal = deal + 1;\n        emit PostProject(msg.sender);\n        return true;\n    }\n\n    function chooseToWork(address _customerAddress,uint256 day, uint price , string memory information)  public override isEngineer(msg.sender)   forSell(_customerAddress) verifyState() \n    returns(string memory){\n        offers[msg.sender] = offer({\n            price: price,\n            day:day,\n            moreInform:information\n        });\n        Engineers[msg.sender].state == State.unprmision;\n        emit chooseTheProject(msg.sender,price);\n        return \"set value on project\";\n    }\n\n    function accepteCustomer(address payable _engineerAddress) public payable override isCustomer(msg.sender) forSell(msg.sender) returns(bool) {\n        require(Engineers[_engineerAddress].engineerAddress == _engineerAddress ,\n            \"this account is not an engineer\");\n        require(customers[msg.sender].customerAddress == msg.sender ,\n            \"this customer is not Exist.\");\n        Project storage p = projects[msg.sender];\n        p.state = State.Finish;\n        offer storage o = offers[_engineerAddress];\n        Engineer storage e = Engineers[_engineerAddress];\n        address payable to = e.engineerAddress; \n        to.transfer(o.price *(1 ether));\n        return true;\n    }\n\n    function EditProject(string memory _name,\n        string memory _skills,\n        string memory _information,uint _averageOfprice )\n        public override\n        verifyCaller(msg.sender)\n        forSell(msg.sender)\n        returns (string memory)   \n        { \n      \n        Project memory p = projects[msg.sender];\n           p.owner = msg.sender;\n           p.Name = _name;\n           p.state= State.forSell;\n           p.skills= _skills;\n           p.information = _information;\n           p. averageOfprice = _averageOfprice;\n          \n             \n        \n        return \"the project was update\"; \n    }\n\n    // get project parameters\n    function getProject(address _customerAddress) public view override \n    verifyCaller(msg.sender) \n    forSell(_customerAddress)\n    returns (string memory Name,string memory skills,\n    string memory information,uint averageOfprice )   \n    {\n        Project storage p = projects[_customerAddress];\n        return (p.Name,p.skills,p.information,p.averageOfprice  ); \n    }\n    \n\n    //can delete the project with the id of project\n    function deleteProject(address _customerAddress) \n    public override \n    isCustomer(msg.sender) \n    returns(string memory){\n\n        Project storage p = projects[_customerAddress];\n        p.owner= address(0);\n        p.Name = \" \";\n        p.skills = \" \";\n        p.information = \" \";\n        p.averageOfprice = 0 ;\n        \n        return \"the project was delete\";\n\n    }\n\n\n    // function paymentFull() public view  returns(uint){\n    //     uint day =offers[msg.sender].day;\n    //     uint a =day-(day*1/2);\n    //     // require(offers[msg.sender].day == a )\n    //     return a;\n\n    // }\n\n\n    function _passthevalue() public returns(string memory){\n        Project storage p = projects[msg.sender];\n        require(p.state == State.Finish ,\"this project was not finish\");\n        address payable to = customers[msg.sender].customerAddress ; \n        uint value = address(this).balance;\n        to.transfer(value);\n        return \"the value is return\";\n    }\n\n    function getBalance() external view returns(uint){\n        return address(this).balance;\n    }\n\n\n}",
  "sourcePath": "C:/Users/sodaba ulomi/Desktop/wslapp/contracts/SmallBusiness.sol",
  "compiler": {
    "name": "solc",
    "version": "0.7.6+commit.7338295f.Emscripten.clang"
  },
  "schemaVersion": "3.3.3",
  "updatedAt": "2022-01-10T18:07:09.863Z",
  "networkType": "ethereum",
  "devdoc": {
    "events": {
      "PostProject(address)": {
        "params": {
          "_customerAddress": "is the address of Project"
        }
      },
      "chooseTheProject(address,uint256)": {
        "params": {
          "_customerAddress": "is the address of Project",
          "price": "is the price that customer send to Engineer"
        }
      },
      "logAddCustomer(address)": {
        "params": {
          "_address": "Engineer address"
        }
      },
      "logAddEngineers(address)": {
        "params": {
          "_address": "customer address"
        }
      }
    },
    "kind": "dev",
    "methods": {},
    "version": 1
  },
  "userdoc": {
    "events": {
      "PostProject(address)": {
        "notice": "Emitted when a Project is posted "
      },
      "chooseTheProject(address,uint256)": {
        "notice": "Emitted when Engineer add a price for working on project "
      },
      "logAddCustomer(address)": {
        "notice": "Emitted when a Engineer is registred "
      },
      "logAddEngineers(address)": {
        "notice": "Emitted when a customer is registred "
      }
    },
    "kind": "user",
    "methods": {
      "accepteCustomer(address)": {
        "notice": "Allows a customer for view the price of the project that engineer add it and payed that price."
      },
      "addCustomer(address,string)": {
        "notice": "Allows to add a new customer in the network."
      },
      "addEngineer(address,string)": {
        "notice": "Allows to add a new engineer in the network."
      },
      "addProject(string,string,string,uint256)": {
        "notice": "add Project`s id in to mapping check the state of project should be forSell check the modifier is customer to call that function  the customer should call that function"
      },
      "deleteProject(address)": {
        "notice": "Allows the customer for delete the project"
      },
      "getProject(address)": {
        "notice": "Allows a Engineer and customer and users for view the project."
      }
    },
    "version": 1
  }
}