{
  "contractName": "SmallBusiness",
  "abi": [
    {
      "inputs": [],
      "stateMutability": "nonpayable",
      "type": "constructor"
    },
    {
      "anonymous": false,
      "inputs": [
        {
          "indexed": false,
          "internalType": "address",
          "name": "_customerAddress",
          "type": "address"
        }
      ],
      "name": "PostProject",
      "type": "event"
    },
    {
      "anonymous": false,
      "inputs": [
        {
          "indexed": false,
          "internalType": "address",
          "name": "_customerAddress",
          "type": "address"
        },
        {
          "indexed": false,
          "internalType": "uint256",
          "name": "price",
          "type": "uint256"
        }
      ],
      "name": "chooseTheProject",
      "type": "event"
    },
    {
      "anonymous": false,
      "inputs": [
        {
          "indexed": false,
          "internalType": "address",
          "name": "_address",
          "type": "address"
        }
      ],
      "name": "logAddCustomer",
      "type": "event"
    },
    {
      "anonymous": false,
      "inputs": [
        {
          "indexed": false,
          "internalType": "address",
          "name": "_address",
          "type": "address"
        }
      ],
      "name": "logAddEngineers",
      "type": "event"
    },
    {
      "inputs": [
        {
          "internalType": "address",
          "name": "",
          "type": "address"
        }
      ],
      "name": "Engineers",
      "outputs": [
        {
          "internalType": "address payable",
          "name": "engineerAddress",
          "type": "address"
        },
        {
          "internalType": "string",
          "name": "Name",
          "type": "string"
        },
        {
          "internalType": "enum SmallBusiness.State",
          "name": "state",
          "type": "uint8"
        }
      ],
      "stateMutability": "view",
      "type": "function",
      "constant": true
    },
    {
      "inputs": [
        {
          "internalType": "address",
          "name": "",
          "type": "address"
        }
      ],
      "name": "customers",
      "outputs": [
        {
          "internalType": "address payable",
          "name": "customerAddress",
          "type": "address"
        },
        {
          "internalType": "string",
          "name": "Name",
          "type": "string"
        }
      ],
      "stateMutability": "view",
      "type": "function",
      "constant": true
    },
    {
      "inputs": [],
      "name": "deal",
      "outputs": [
        {
          "internalType": "uint256",
          "name": "",
          "type": "uint256"
        }
      ],
      "stateMutability": "view",
      "type": "function",
      "constant": true
    },
    {
      "inputs": [
        {
          "internalType": "address",
          "name": "",
          "type": "address"
        }
      ],
      "name": "offers",
      "outputs": [
        {
          "internalType": "uint256",
          "name": "price",
          "type": "uint256"
        },
        {
          "internalType": "uint256",
          "name": "day",
          "type": "uint256"
        },
        {
          "internalType": "string",
          "name": "moreInform",
          "type": "string"
        }
      ],
      "stateMutability": "view",
      "type": "function",
      "constant": true
    },
    {
      "inputs": [],
      "name": "owner",
      "outputs": [
        {
          "internalType": "address",
          "name": "",
          "type": "address"
        }
      ],
      "stateMutability": "view",
      "type": "function",
      "constant": true
    },
    {
      "inputs": [
        {
          "internalType": "address",
          "name": "",
          "type": "address"
        }
      ],
      "name": "projects",
      "outputs": [
        {
          "internalType": "address",
          "name": "owner",
          "type": "address"
        },
        {
          "internalType": "string",
          "name": "Name",
          "type": "string"
        },
        {
          "internalType": "enum SmallBusiness.State",
          "name": "state",
          "type": "uint8"
        },
        {
          "internalType": "string",
          "name": "skills",
          "type": "string"
        },
        {
          "internalType": "string",
          "name": "information",
          "type": "string"
        },
        {
          "internalType": "uint256",
          "name": "averageOfprice",
          "type": "uint256"
        },
        {
          "internalType": "uint256",
          "name": "id",
          "type": "uint256"
        }
      ],
      "stateMutability": "view",
      "type": "function",
      "constant": true
    },
    {
      "inputs": [
        {
          "internalType": "address payable",
          "name": "customerAddress",
          "type": "address"
        },
        {
          "internalType": "string",
          "name": "yourName",
          "type": "string"
        }
      ],
      "name": "addCustomer",
      "outputs": [
        {
          "internalType": "bool",
          "name": "",
          "type": "bool"
        }
      ],
      "stateMutability": "nonpayable",
      "type": "function"
    },
    {
      "inputs": [
        {
          "internalType": "address payable",
          "name": "_engineerAddress",
          "type": "address"
        },
        {
          "internalType": "string",
          "name": "_yourName",
          "type": "string"
        }
      ],
      "name": "addEngineer",
      "outputs": [
        {
          "internalType": "bool",
          "name": "",
          "type": "bool"
        }
      ],
      "stateMutability": "nonpayable",
      "type": "function"
    },
    {
      "inputs": [
        {
          "internalType": "string",
          "name": "Name",
          "type": "string"
        },
        {
          "internalType": "string",
          "name": "skills",
          "type": "string"
        },
        {
          "internalType": "string",
          "name": "information",
          "type": "string"
        },
        {
          "internalType": "uint256",
          "name": "averageOfprice",
          "type": "uint256"
        },
        {
          "internalType": "uint256",
          "name": "_id",
          "type": "uint256"
        }
      ],
      "name": "addProject",
      "outputs": [
        {
          "internalType": "bool",
          "name": "",
          "type": "bool"
        }
      ],
      "stateMutability": "payable",
      "type": "function",
      "payable": true
    },
    {
      "inputs": [
        {
          "internalType": "address",
          "name": "_customerAddress",
          "type": "address"
        },
        {
          "internalType": "uint256",
          "name": "day",
          "type": "uint256"
        },
        {
          "internalType": "uint256",
          "name": "price",
          "type": "uint256"
        },
        {
          "internalType": "string",
          "name": "information",
          "type": "string"
        }
      ],
      "name": "chooseToWork",
      "outputs": [
        {
          "internalType": "string",
          "name": "",
          "type": "string"
        }
      ],
      "stateMutability": "nonpayable",
      "type": "function"
    },
    {
      "inputs": [
        {
          "internalType": "address payable",
          "name": "_engineerAddress",
          "type": "address"
        }
      ],
      "name": "accepteCustomer",
      "outputs": [
        {
          "internalType": "bool",
          "name": "",
          "type": "bool"
        }
      ],
      "stateMutability": "payable",
      "type": "function",
      "payable": true
    },
    {
      "inputs": [
        {
          "internalType": "address",
          "name": "_engineerAddress",
          "type": "address"
        }
      ],
      "name": "halfPayment",
      "outputs": [],
      "stateMutability": "payable",
      "type": "function",
      "payable": true
    },
    {
      "inputs": [
        {
          "internalType": "address",
          "name": "_engineerAddress",
          "type": "address"
        }
      ],
      "name": "finishTheProject",
      "outputs": [],
      "stateMutability": "payable",
      "type": "function",
      "payable": true
    },
    {
      "inputs": [],
      "name": "_passthevalue",
      "outputs": [
        {
          "internalType": "string",
          "name": "",
          "type": "string"
        }
      ],
      "stateMutability": "nonpayable",
      "type": "function"
    },
    {
      "inputs": [
        {
          "internalType": "address",
          "name": "_customerAddress",
          "type": "address"
        }
      ],
      "name": "getProject",
      "outputs": [
        {
          "internalType": "string",
          "name": "Name",
          "type": "string"
        },
        {
          "internalType": "string",
          "name": "skills",
          "type": "string"
        },
        {
          "internalType": "string",
          "name": "information",
          "type": "string"
        },
        {
          "internalType": "uint256",
          "name": "averageOfprice",
          "type": "uint256"
        },
        {
          "internalType": "uint256",
          "name": "id",
          "type": "uint256"
        }
      ],
      "stateMutability": "view",
      "type": "function",
      "constant": true
    },
    {
      "inputs": [
        {
          "internalType": "string",
          "name": "Name",
          "type": "string"
        },
        {
          "internalType": "string",
          "name": "skills",
          "type": "string"
        },
        {
          "internalType": "string",
          "name": "information",
          "type": "string"
        },
        {
          "internalType": "uint256",
          "name": "averageOfprice",
          "type": "uint256"
        },
        {
          "internalType": "uint256",
          "name": "id",
          "type": "uint256"
        }
      ],
      "name": "EditProject",
      "outputs": [
        {
          "internalType": "string",
          "name": "",
          "type": "string"
        }
      ],
      "stateMutability": "nonpayable",
      "type": "function"
    },
    {
      "inputs": [],
      "name": "getBalance",
      "outputs": [
        {
          "internalType": "uint256",
          "name": "",
          "type": "uint256"
        }
      ],
      "stateMutability": "view",
      "type": "function",
      "constant": true
    }
  ],
  "bytecode": "0x6080604052600560003373ffffffffffffffffffffffffffffffffffffffff1673ffffffffffffffffffffffffffffffffffffffff16815260200190815260200160002060000160009054906101000a900473ffffffffffffffffffffffffffffffffffffffff16600260006101000a81548173ffffffffffffffffffffffffffffffffffffffff021916908373ffffffffffffffffffffffffffffffffffffffff1602179055503480156100b357600080fd5b50336000806101000a81548173ffffffffffffffffffffffffffffffffffffffff021916908373ffffffffffffffffffffffffffffffffffffffff16021790555060006001819055506140868061010b6000396000f3fe6080604052600436106100fe5760003560e01c8063771ae605116100955780638da5cb5b116100645780638da5cb5b14610bc8578063a871ca5d14610c09578063cea1a67a14610d07578063d026c42514610d97578063f987070514610faa576100fe565b8063771ae6051461073257806378e4f93414610776578063840e78fd146108eb57806388bc815014610aca576100fe565b80633d8f426d116100d15780633d8f426d14610591578063413bf38f146105eb578063553df021146106c35780636e618c73146106ee576100fe565b806303bc470d1461010357806312065fe0146101fc578063336989ae146102275780633c75c5fd1461030e575b600080fd5b34801561010f57600080fd5b506101526004803603602081101561012657600080fd5b81019080803573ffffffffffffffffffffffffffffffffffffffff16906020019092919050505061115a565b604051808473ffffffffffffffffffffffffffffffffffffffff1681526020018060200183600381111561018257fe5b8152602001828103825284818151815260200191508051906020019080838360005b838110156101bf5780820151818401526020810190506101a4565b50505050905090810190601f1680156101ec5780820380516001836020036101000a031916815260200191505b5094505050505060405180910390f35b34801561020857600080fd5b50610211611249565b6040518082815260200191505060405180910390f35b34801561023357600080fd5b506102766004803603602081101561024a57600080fd5b81019080803573ffffffffffffffffffffffffffffffffffffffff169060200190929190505050611251565b604051808373ffffffffffffffffffffffffffffffffffffffff16815260200180602001828103825283818151815260200191508051906020019080838360005b838110156102d25780820151818401526020810190506102b7565b50505050905090810190601f1680156102ff5780820380516001836020036101000a031916815260200191505b50935050505060405180910390f35b34801561031a57600080fd5b50610516600480360360a081101561033157600080fd5b810190808035906020019064010000000081111561034e57600080fd5b82018360208201111561036057600080fd5b8035906020019184600183028401116401000000008311171561038257600080fd5b91908080601f016020809104026020016040519081016040528093929190818152602001838380828437600081840152601f19601f820116905080830192505050505050509192919290803590602001906401000000008111156103e557600080fd5b8201836020820111156103f757600080fd5b8035906020019184600183028401116401000000008311171561041957600080fd5b91908080601f016020809104026020016040519081016040528093929190818152602001838380828437600081840152601f19601f8201169050808301925050505050505091929192908035906020019064010000000081111561047c57600080fd5b82018360208201111561048e57600080fd5b803590602001918460018302840111640100000000831117156104b057600080fd5b91908080601f016020809104026020016040519081016040528093929190818152602001838380828437600081840152601f19601f820116905080830192505050505050509192919290803590602001909291908035906020019092919050505061132d565b6040518080602001828103825283818151815260200191508051906020019080838360005b8381101561055657808201518184015260208101905061053b565b50505050905090810190601f1680156105835780820380516001836020036101000a031916815260200191505b509250505060405180910390f35b6105d3600480360360208110156105a757600080fd5b81019080803573ffffffffffffffffffffffffffffffffffffffff169060200190929190505050611709565b60405180821515815260200191505060405180910390f35b3480156105f757600080fd5b5061063a6004803603602081101561060e57600080fd5b81019080803573ffffffffffffffffffffffffffffffffffffffff169060200190929190505050611d1b565b6040518084815260200183815260200180602001828103825283818151815260200191508051906020019080838360005b8381101561068657808201518184015260208101905061066b565b50505050905090810190601f1680156106b35780820380516001836020036101000a031916815260200191505b5094505050505060405180910390f35b3480156106cf57600080fd5b506106d8611ddd565b6040518082815260200191505060405180910390f35b6107306004803603602081101561070457600080fd5b81019080803573ffffffffffffffffffffffffffffffffffffffff169060200190929190505050611de3565b005b6107746004803603602081101561074857600080fd5b81019080803573ffffffffffffffffffffffffffffffffffffffff169060200190929190505050612275565b005b34801561078257600080fd5b506108706004803603608081101561079957600080fd5b81019080803573ffffffffffffffffffffffffffffffffffffffff1690602001909291908035906020019092919080359060200190929190803590602001906401000000008111156107ea57600080fd5b8201836020820111156107fc57600080fd5b8035906020019184600183028401116401000000008311171561081e57600080fd5b91908080601f016020809104026020016040519081016040528093929190818152602001838380828437600081840152601f19601f82011690508083019250505050505050919291929050505061269d565b6040518080602001828103825283818151815260200191508051906020019080838360005b838110156108b0578082015181840152602081019050610895565b50505050905090810190601f1680156108dd5780820380516001836020036101000a031916815260200191505b509250505060405180910390f35b3480156108f757600080fd5b5061093a6004803603602081101561090e57600080fd5b81019080803573ffffffffffffffffffffffffffffffffffffffff169060200190929190505050612bed565b604051808873ffffffffffffffffffffffffffffffffffffffff1681526020018060200187600381111561096a57fe5b8152602001806020018060200186815260200185815260200184810384528a818151815260200191508051906020019080838360005b838110156109bb5780820151818401526020810190506109a0565b50505050905090810190601f1680156109e85780820380516001836020036101000a031916815260200191505b50848103835288818151815260200191508051906020019080838360005b83811015610a21578082015181840152602081019050610a06565b50505050905090810190601f168015610a4e5780820380516001836020036101000a031916815260200191505b50848103825287818151815260200191508051906020019080838360005b83811015610a87578082015181840152602081019050610a6c565b50505050905090810190601f168015610ab45780820380516001836020036101000a031916815260200191505b509a505050505050505050505060405180910390f35b348015610ad657600080fd5b50610bb060048036036040811015610aed57600080fd5b81019080803573ffffffffffffffffffffffffffffffffffffffff16906020019092919080359060200190640100000000811115610b2a57600080fd5b820183602082011115610b3c57600080fd5b80359060200191846001830284011164010000000083111715610b5e57600080fd5b91908080601f016020809104026020016040519081016040528093929190818152602001838380828437600081840152601f19601f820116905080830192505050505050509192919290505050612e24565b60405180821515815260200191505060405180910390f35b348015610bd457600080fd5b50610bdd61303f565b604051808273ffffffffffffffffffffffffffffffffffffffff16815260200191505060405180910390f35b348015610c1557600080fd5b50610cef60048036036040811015610c2c57600080fd5b81019080803573ffffffffffffffffffffffffffffffffffffffff16906020019092919080359060200190640100000000811115610c6957600080fd5b820183602082011115610c7b57600080fd5b80359060200191846001830284011164010000000083111715610c9d57600080fd5b91908080601f016020809104026020016040519081016040528093929190818152602001838380828437600081840152601f19601f820116905080830192505050505050509192919290505050613063565b60405180821515815260200191505060405180910390f35b348015610d1357600080fd5b50610d1c6132d6565b6040518080602001828103825283818151815260200191508051906020019080838360005b83811015610d5c578082015181840152602081019050610d41565b50505050905090810190601f168015610d895780820380516001836020036101000a031916815260200191505b509250505060405180910390f35b610f92600480360360a0811015610dad57600080fd5b8101908080359060200190640100000000811115610dca57600080fd5b820183602082011115610ddc57600080fd5b80359060200191846001830284011164010000000083111715610dfe57600080fd5b91908080601f016020809104026020016040519081016040528093929190818152602001838380828437600081840152601f19601f82011690508083019250505050505050919291929080359060200190640100000000811115610e6157600080fd5b820183602082011115610e7357600080fd5b80359060200191846001830284011164010000000083111715610e9557600080fd5b91908080601f016020809104026020016040519081016040528093929190818152602001838380828437600081840152601f19601f82011690508083019250505050505050919291929080359060200190640100000000811115610ef857600080fd5b820183602082011115610f0a57600080fd5b80359060200191846001830284011164010000000083111715610f2c57600080fd5b91908080601f016020809104026020016040519081016040528093929190818152602001838380828437600081840152601f19601f82011690508083019250505050505050919291929080359060200190929190803590602001909291905050506134b3565b60405180821515815260200191505060405180910390f35b348015610fb657600080fd5b50610ff960048036036020811015610fcd57600080fd5b81019080803573ffffffffffffffffffffffffffffffffffffffff169060200190929190505050613823565b60405180806020018060200180602001868152602001858152602001848103845289818151815260200191508051906020019080838360005b8381101561104d578082015181840152602081019050611032565b50505050905090810190601f16801561107a5780820380516001836020036101000a031916815260200191505b50848103835288818151815260200191508051906020019080838360005b838110156110b3578082015181840152602081019050611098565b50505050905090810190601f1680156110e05780820380516001836020036101000a031916815260200191505b50848103825287818151815260200191508051906020019080838360005b838110156111195780820151818401526020810190506110fe565b50505050905090810190601f1680156111465780820380516001836020036101000a031916815260200191505b509850505050505050505060405180910390f35b60056020528060005260406000206000915090508060000160009054906101000a900473ffffffffffffffffffffffffffffffffffffffff1690806001018054600181600116156101000203166002900480601f01602080910402602001604051908101604052809291908181526020018280546001816001161561010002031660029004801561122c5780601f106112015761010080835404028352916020019161122c565b820191906000526020600020905b81548152906001019060200180831161120f57829003601f168201915b5050505050908060020160009054906101000a900460ff16905083565b600047905090565b60046020528060005260406000206000915090508060000160009054906101000a900473ffffffffffffffffffffffffffffffffffffffff1690806001018054600181600116156101000203166002900480601f0160208091040260200160405190810160405280929190818152602001828054600181600116156101000203166002900480156113235780601f106112f857610100808354040283529160200191611323565b820191906000526020600020905b81548152906001019060200180831161130657829003601f168201915b5050505050905082565b6060338073ffffffffffffffffffffffffffffffffffffffff163373ffffffffffffffffffffffffffffffffffffffff161461136857600080fd5b33600073ffffffffffffffffffffffffffffffffffffffff16600660008373ffffffffffffffffffffffffffffffffffffffff1673ffffffffffffffffffffffffffffffffffffffff16815260200190815260200160002060000160009054906101000a900473ffffffffffffffffffffffffffffffffffffffff1673ffffffffffffffffffffffffffffffffffffffff16141561146e576040517f08c379a000000000000000000000000000000000000000000000000000000000815260040180806020018281038252601a8152602001807f5468652070726f6a656374206973206e6f74206e6f7468696e6700000000000081525060200191505060405180910390fd5b6000600381111561147b57fe5b600660008373ffffffffffffffffffffffffffffffffffffffff1673ffffffffffffffffffffffffffffffffffffffff16815260200190815260200160002060020160009054906101000a900460ff1660038111156114d657fe5b14611549576040517f08c379a000000000000000000000000000000000000000000000000000000000815260040180806020018281038252601e8152602001807f7468652070726f6a6563742068617320616c726561647920646f6e652e2e000081525060200191505060405180910390fd5b6040518060e001604052803373ffffffffffffffffffffffffffffffffffffffff1681526020018981526020016000600381111561158357fe5b815260200188815260200187815260200186815260200185815250600660003373ffffffffffffffffffffffffffffffffffffffff1673ffffffffffffffffffffffffffffffffffffffff16815260200190815260200160002060008201518160000160006101000a81548173ffffffffffffffffffffffffffffffffffffffff021916908373ffffffffffffffffffffffffffffffffffffffff1602179055506020820151816001019080519060200190611640929190613f48565b5060408201518160020160006101000a81548160ff0219169083600381111561166557fe5b02179055506060820151816003019080519060200190611686929190613f48565b5060808201518160040190805190602001906116a3929190613f48565b5060a0820151816005015560c0820151816006015590505060018054016001819055506040518060400160405280601681526020017f7468652070726f6a6563742077617320757064617465000000000000000000008152509250505095945050505050565b6000338073ffffffffffffffffffffffffffffffffffffffff16600460008373ffffffffffffffffffffffffffffffffffffffff1673ffffffffffffffffffffffffffffffffffffffff16815260200190815260200160002060000160009054906101000a900473ffffffffffffffffffffffffffffffffffffffff1673ffffffffffffffffffffffffffffffffffffffff161461180f576040517f08c379a000000000000000000000000000000000000000000000000000000000815260040180806020018281038252601d8152602001807f74686973206163636f756e74206973206e6f7420437573746f6d65722e00000081525060200191505060405180910390fd5b33600073ffffffffffffffffffffffffffffffffffffffff16600660008373ffffffffffffffffffffffffffffffffffffffff1673ffffffffffffffffffffffffffffffffffffffff16815260200190815260200160002060000160009054906101000a900473ffffffffffffffffffffffffffffffffffffffff1673ffffffffffffffffffffffffffffffffffffffff161415611915576040517f08c379a000000000000000000000000000000000000000000000000000000000815260040180806020018281038252601a8152602001807f5468652070726f6a656374206973206e6f74206e6f7468696e6700000000000081525060200191505060405180910390fd5b6000600381111561192257fe5b600660008373ffffffffffffffffffffffffffffffffffffffff1673ffffffffffffffffffffffffffffffffffffffff16815260200190815260200160002060020160009054906101000a900460ff16600381111561197d57fe5b146119f0576040517f08c379a000000000000000000000000000000000000000000000000000000000815260040180806020018281038252601e8152602001807f7468652070726f6a6563742068617320616c726561647920646f6e652e2e000081525060200191505060405180910390fd5b8373ffffffffffffffffffffffffffffffffffffffff16600560008673ffffffffffffffffffffffffffffffffffffffff1673ffffffffffffffffffffffffffffffffffffffff16815260200190815260200160002060000160009054906101000a900473ffffffffffffffffffffffffffffffffffffffff1673ffffffffffffffffffffffffffffffffffffffff1614611af3576040517f08c379a000000000000000000000000000000000000000000000000000000000815260040180806020018281038252601f8152602001807f74686973206163636f756e74206973206e6f7420616e20656e67696e6565720081525060200191505060405180910390fd5b3373ffffffffffffffffffffffffffffffffffffffff16600460003373ffffffffffffffffffffffffffffffffffffffff1673ffffffffffffffffffffffffffffffffffffffff16815260200190815260200160002060000160009054906101000a900473ffffffffffffffffffffffffffffffffffffffff1673ffffffffffffffffffffffffffffffffffffffff1614611bf6576040517f08c379a000000000000000000000000000000000000000000000000000000000815260040180806020018281038252601b8152602001807f7468697320637573746f6d6572206973206e6f742045786973742e000000000081525060200191505060405180910390fd5b6000600360008673ffffffffffffffffffffffffffffffffffffffff1673ffffffffffffffffffffffffffffffffffffffff16815260200190815260200160002090506000600560008773ffffffffffffffffffffffffffffffffffffffff1673ffffffffffffffffffffffffffffffffffffffff168152602001908152602001600020905060008160000160009054906101000a900473ffffffffffffffffffffffffffffffffffffffff16905060006064601485600001540281611cb857fe5b0490508173ffffffffffffffffffffffffffffffffffffffff166108fc670de0b6b3a764000083029081150290604051600060405180830381858888f19350505050158015611d0b573d6000803e3d6000fd5b5060019650505050505050919050565b6003602052806000526040600020600091509050806000015490806001015490806002018054600181600116156101000203166002900480601f016020809104026020016040519081016040528092919081815260200182805460018160011615610100020316600290048015611dd35780601f10611da857610100808354040283529160200191611dd3565b820191906000526020600020905b815481529060010190602001808311611db657829003601f168201915b5050505050905083565b60015481565b338073ffffffffffffffffffffffffffffffffffffffff16600460008373ffffffffffffffffffffffffffffffffffffffff1673ffffffffffffffffffffffffffffffffffffffff16815260200190815260200160002060000160009054906101000a900473ffffffffffffffffffffffffffffffffffffffff1673ffffffffffffffffffffffffffffffffffffffff1614611ee7576040517f08c379a000000000000000000000000000000000000000000000000000000000815260040180806020018281038252601d8152602001807f74686973206163636f756e74206973206e6f7420437573746f6d65722e00000081525060200191505060405180910390fd5b8173ffffffffffffffffffffffffffffffffffffffff16600560008473ffffffffffffffffffffffffffffffffffffffff1673ffffffffffffffffffffffffffffffffffffffff16815260200190815260200160002060000160009054906101000a900473ffffffffffffffffffffffffffffffffffffffff1673ffffffffffffffffffffffffffffffffffffffff1614611fea576040517f08c379a000000000000000000000000000000000000000000000000000000000815260040180806020018281038252601f8152602001807f74686973206163636f756e74206973206e6f7420616e20656e67696e6565720081525060200191505060405180910390fd5b3373ffffffffffffffffffffffffffffffffffffffff16600460003373ffffffffffffffffffffffffffffffffffffffff1673ffffffffffffffffffffffffffffffffffffffff16815260200190815260200160002060000160009054906101000a900473ffffffffffffffffffffffffffffffffffffffff1673ffffffffffffffffffffffffffffffffffffffff16146120ed576040517f08c379a000000000000000000000000000000000000000000000000000000000815260040180806020018281038252601b8152602001807f7468697320637573746f6d6572206973206e6f742045786973742e000000000081525060200191505060405180910390fd5b6000600660003373ffffffffffffffffffffffffffffffffffffffff1673ffffffffffffffffffffffffffffffffffffffff168152602001908152602001600020905060018160020160006101000a81548160ff0219169083600381111561215157fe5b02179055506000600360008573ffffffffffffffffffffffffffffffffffffffff1673ffffffffffffffffffffffffffffffffffffffff16815260200190815260200160002090506000600560008673ffffffffffffffffffffffffffffffffffffffff1673ffffffffffffffffffffffffffffffffffffffff168152602001908152602001600020905060008160000160009054906101000a900473ffffffffffffffffffffffffffffffffffffffff1690506000606460148560000154028161221857fe5b0490508173ffffffffffffffffffffffffffffffffffffffff166108fc670de0b6b3a764000083029081150290604051600060405180830381858888f1935050505015801561226b573d6000803e3d6000fd5b5050505050505050565b338073ffffffffffffffffffffffffffffffffffffffff16600460008373ffffffffffffffffffffffffffffffffffffffff1673ffffffffffffffffffffffffffffffffffffffff16815260200190815260200160002060000160009054906101000a900473ffffffffffffffffffffffffffffffffffffffff1673ffffffffffffffffffffffffffffffffffffffff1614612379576040517f08c379a000000000000000000000000000000000000000000000000000000000815260040180806020018281038252601d8152602001807f74686973206163636f756e74206973206e6f7420437573746f6d65722e00000081525060200191505060405180910390fd5b8173ffffffffffffffffffffffffffffffffffffffff16600560008473ffffffffffffffffffffffffffffffffffffffff1673ffffffffffffffffffffffffffffffffffffffff16815260200190815260200160002060000160009054906101000a900473ffffffffffffffffffffffffffffffffffffffff1673ffffffffffffffffffffffffffffffffffffffff161461247c576040517f08c379a000000000000000000000000000000000000000000000000000000000815260040180806020018281038252601f8152602001807f74686973206163636f756e74206973206e6f7420616e20656e67696e6565720081525060200191505060405180910390fd5b3373ffffffffffffffffffffffffffffffffffffffff16600460003373ffffffffffffffffffffffffffffffffffffffff1673ffffffffffffffffffffffffffffffffffffffff16815260200190815260200160002060000160009054906101000a900473ffffffffffffffffffffffffffffffffffffffff1673ffffffffffffffffffffffffffffffffffffffff161461257f576040517f08c379a000000000000000000000000000000000000000000000000000000000815260040180806020018281038252601b8152602001807f7468697320637573746f6d6572206973206e6f742045786973742e000000000081525060200191505060405180910390fd5b6000600360008473ffffffffffffffffffffffffffffffffffffffff1673ffffffffffffffffffffffffffffffffffffffff16815260200190815260200160002090506000600560008573ffffffffffffffffffffffffffffffffffffffff1673ffffffffffffffffffffffffffffffffffffffff168152602001908152602001600020905060008160000160009054906101000a900473ffffffffffffffffffffffffffffffffffffffff1690506000606460328560000154028161264157fe5b0490508173ffffffffffffffffffffffffffffffffffffffff166108fc670de0b6b3a764000083029081150290604051600060405180830381858888f19350505050158015612694573d6000803e3d6000fd5b50505050505050565b6060338073ffffffffffffffffffffffffffffffffffffffff16600560008373ffffffffffffffffffffffffffffffffffffffff1673ffffffffffffffffffffffffffffffffffffffff16815260200190815260200160002060000160009054906101000a900473ffffffffffffffffffffffffffffffffffffffff1673ffffffffffffffffffffffffffffffffffffffff16146127a3576040517f08c379a00000000000000000000000000000000000000000000000000000000081526004018080602001828103825260158152602001807f63616c6c65722069736e6f7420456e67696e656572000000000000000000000081525060200191505060405180910390fd5b85600073ffffffffffffffffffffffffffffffffffffffff16600660008373ffffffffffffffffffffffffffffffffffffffff1673ffffffffffffffffffffffffffffffffffffffff16815260200190815260200160002060000160009054906101000a900473ffffffffffffffffffffffffffffffffffffffff1673ffffffffffffffffffffffffffffffffffffffff1614156128a9576040517f08c379a000000000000000000000000000000000000000000000000000000000815260040180806020018281038252601a8152602001807f5468652070726f6a656374206973206e6f74206e6f7468696e6700000000000081525060200191505060405180910390fd5b600060038111156128b657fe5b600660008373ffffffffffffffffffffffffffffffffffffffff1673ffffffffffffffffffffffffffffffffffffffff16815260200190815260200160002060020160009054906101000a900460ff16600381111561291157fe5b14612984576040517f08c379a000000000000000000000000000000000000000000000000000000000815260040180806020018281038252601e8152602001807f7468652070726f6a6563742068617320616c726561647920646f6e652e2e000081525060200191505060405180910390fd5b6002600381111561299157fe5b600560003373ffffffffffffffffffffffffffffffffffffffff1673ffffffffffffffffffffffffffffffffffffffff16815260200190815260200160002060020160009054906101000a900460ff1660038111156129ec57fe5b14612a5f576040517f08c379a000000000000000000000000000000000000000000000000000000000815260040180806020018281038252601e8152602001807f74686973206163636f756e7420616c7265616479207365742076616c7565000081525060200191505060405180910390fd5b604051806060016040528086815260200187815260200185815250600360003373ffffffffffffffffffffffffffffffffffffffff1673ffffffffffffffffffffffffffffffffffffffff16815260200190815260200160002060008201518160000155602082015181600101556040820151816002019080519060200190612ae9929190613f48565b50905050600380811115612af957fe5b600560003373ffffffffffffffffffffffffffffffffffffffff1673ffffffffffffffffffffffffffffffffffffffff16815260200190815260200160002060020160009054906101000a900460ff166003811115612b5457fe5b50507f140ba8a8a70ea6896f415e662fe4a3493133537db4dcd56586070e42253d9b433386604051808373ffffffffffffffffffffffffffffffffffffffff1681526020018281526020019250505060405180910390a16040518060400160405280601481526020017f7365742076616c7565206f6e2070726f6a65637400000000000000000000000081525092505050949350505050565b60066020528060005260406000206000915090508060000160009054906101000a900473ffffffffffffffffffffffffffffffffffffffff1690806001018054600181600116156101000203166002900480601f016020809104026020016040519081016040528092919081815260200182805460018160011615610100020316600290048015612cbf5780601f10612c9457610100808354040283529160200191612cbf565b820191906000526020600020905b815481529060010190602001808311612ca257829003601f168201915b5050505050908060020160009054906101000a900460ff1690806003018054600181600116156101000203166002900480601f016020809104026020016040519081016040528092919081815260200182805460018160011615610100020316600290048015612d705780601f10612d4557610100808354040283529160200191612d70565b820191906000526020600020905b815481529060010190602001808311612d5357829003601f168201915b505050505090806004018054600181600116156101000203166002900480601f016020809104026020016040519081016040528092919081815260200182805460018160011615610100020316600290048015612e0e5780601f10612de357610100808354040283529160200191612e0e565b820191906000526020600020905b815481529060010190602001808311612df157829003601f168201915b5050505050908060050154908060060154905087565b60008073ffffffffffffffffffffffffffffffffffffffff16600460008573ffffffffffffffffffffffffffffffffffffffff1673ffffffffffffffffffffffffffffffffffffffff16815260200190815260200160002060000160009054906101000a900473ffffffffffffffffffffffffffffffffffffffff1673ffffffffffffffffffffffffffffffffffffffff1614612f0c576040517f08c379a00000000000000000000000000000000000000000000000000000000081526004018080602001828103825260218152602001806140306021913960400191505060405180910390fd5b60405180604001604052808473ffffffffffffffffffffffffffffffffffffffff16815260200183815250600460008573ffffffffffffffffffffffffffffffffffffffff1673ffffffffffffffffffffffffffffffffffffffff16815260200190815260200160002060008201518160000160006101000a81548173ffffffffffffffffffffffffffffffffffffffff021916908373ffffffffffffffffffffffffffffffffffffffff1602179055506020820151816001019080519060200190612fd9929190613f48565b509050507f67db2594560e9767e8eec7f82a7ee7777909a9c55f1dc6ba490d7ef45ffcecfd83604051808273ffffffffffffffffffffffffffffffffffffffff16815260200191505060405180910390a160018054016001819055506001905092915050565b60008054906101000a900473ffffffffffffffffffffffffffffffffffffffff1681565b60008073ffffffffffffffffffffffffffffffffffffffff16600560008573ffffffffffffffffffffffffffffffffffffffff1673ffffffffffffffffffffffffffffffffffffffff16815260200190815260200160002060000160009054906101000a900473ffffffffffffffffffffffffffffffffffffffff1673ffffffffffffffffffffffffffffffffffffffff1614613168576040517f08c379a000000000000000000000000000000000000000000000000000000000815260040180806020018281038252601f8152602001807f74686973206164647265737320616c7265616479207265676973747265642e0081525060200191505060405180910390fd5b60405180606001604052808473ffffffffffffffffffffffffffffffffffffffff168152602001838152602001600260038111156131a257fe5b815250600560008573ffffffffffffffffffffffffffffffffffffffff1673ffffffffffffffffffffffffffffffffffffffff16815260200190815260200160002060008201518160000160006101000a81548173ffffffffffffffffffffffffffffffffffffffff021916908373ffffffffffffffffffffffffffffffffffffffff1602179055506020820151816001019080519060200190613247929190613f48565b5060408201518160020160006101000a81548160ff0219169083600381111561326c57fe5b02179055509050507f9cd3b8c22eaf60823d8598cfb11eba80932bdb7e58442e690e6368677ac8159383604051808273ffffffffffffffffffffffffffffffffffffffff16815260200191505060405180910390a160018054016001819055506001905092915050565b60606000600660003373ffffffffffffffffffffffffffffffffffffffff1673ffffffffffffffffffffffffffffffffffffffff16815260200190815260200160002090506001600381111561332857fe5b8160020160009054906101000a900460ff16600381111561334557fe5b146133b8576040517f08c379a000000000000000000000000000000000000000000000000000000000815260040180806020018281038252601b8152602001807f746869732070726f6a65637420776173206e6f742066696e697368000000000081525060200191505060405180910390fd5b6000600460003373ffffffffffffffffffffffffffffffffffffffff1673ffffffffffffffffffffffffffffffffffffffff16815260200190815260200160002060000160009054906101000a900473ffffffffffffffffffffffffffffffffffffffff16905060004790508173ffffffffffffffffffffffffffffffffffffffff166108fc829081150290604051600060405180830381858888f1935050505015801561346a573d6000803e3d6000fd5b5061347433613c88565b506040518060400160405280601381526020017f7468652076616c75652069732072657475726e00000000000000000000000000815250935050505090565b6000338073ffffffffffffffffffffffffffffffffffffffff163373ffffffffffffffffffffffffffffffffffffffff16146134ee57600080fd5b600073ffffffffffffffffffffffffffffffffffffffff16600660003373ffffffffffffffffffffffffffffffffffffffff1673ffffffffffffffffffffffffffffffffffffffff16815260200190815260200160002060000160009054906101000a900473ffffffffffffffffffffffffffffffffffffffff1673ffffffffffffffffffffffffffffffffffffffff16146135f2576040517f08c379a000000000000000000000000000000000000000000000000000000000815260040180806020018281038252601e8152602001807f746869732070726f6a65637420616c72656164792069732065786973742e000081525060200191505060405180910390fd5b8334101561364b576040517f08c379a000000000000000000000000000000000000000000000000000000000815260040180806020018281038252603c815260200180613ff4603c913960400191505060405180910390fd5b6040518060e001604052803373ffffffffffffffffffffffffffffffffffffffff1681526020018881526020016000600381111561368557fe5b815260200187815260200186815260200185815260200184815250600660003373ffffffffffffffffffffffffffffffffffffffff1673ffffffffffffffffffffffffffffffffffffffff16815260200190815260200160002060008201518160000160006101000a81548173ffffffffffffffffffffffffffffffffffffffff021916908373ffffffffffffffffffffffffffffffffffffffff1602179055506020820151816001019080519060200190613742929190613f48565b5060408201518160020160006101000a81548160ff0219169083600381111561376757fe5b02179055506060820151816003019080519060200190613788929190613f48565b5060808201518160040190805190602001906137a5929190613f48565b5060a0820151816005015560c0820151816006015590505060018054016001819055507fc90a5997158125d11f471581d0f9c698a86d5f9b21d81eccee8f78d4d37327c133604051808273ffffffffffffffffffffffffffffffffffffffff16815260200191505060405180910390a1600191505095945050505050565b6060806060600080338073ffffffffffffffffffffffffffffffffffffffff163373ffffffffffffffffffffffffffffffffffffffff161461386457600080fd5b86600073ffffffffffffffffffffffffffffffffffffffff16600660008373ffffffffffffffffffffffffffffffffffffffff1673ffffffffffffffffffffffffffffffffffffffff16815260200190815260200160002060000160009054906101000a900473ffffffffffffffffffffffffffffffffffffffff1673ffffffffffffffffffffffffffffffffffffffff16141561396a576040517f08c379a000000000000000000000000000000000000000000000000000000000815260040180806020018281038252601a8152602001807f5468652070726f6a656374206973206e6f74206e6f7468696e6700000000000081525060200191505060405180910390fd5b6000600381111561397757fe5b600660008373ffffffffffffffffffffffffffffffffffffffff1673ffffffffffffffffffffffffffffffffffffffff16815260200190815260200160002060020160009054906101000a900460ff1660038111156139d257fe5b14613a45576040517f08c379a000000000000000000000000000000000000000000000000000000000815260040180806020018281038252601e8152602001807f7468652070726f6a6563742068617320616c726561647920646f6e652e2e000081525060200191505060405180910390fd5b6000600660008a73ffffffffffffffffffffffffffffffffffffffff1673ffffffffffffffffffffffffffffffffffffffff168152602001908152602001600020905080600101816003018260040183600501548460060154848054600181600116156101000203166002900480601f016020809104026020016040519081016040528092919081815260200182805460018160011615610100020316600290048015613b335780601f10613b0857610100808354040283529160200191613b33565b820191906000526020600020905b815481529060010190602001808311613b1657829003601f168201915b50505050509450838054600181600116156101000203166002900480601f016020809104026020016040519081016040528092919081815260200182805460018160011615610100020316600290048015613bcf5780601f10613ba457610100808354040283529160200191613bcf565b820191906000526020600020905b815481529060010190602001808311613bb257829003601f168201915b50505050509350828054600181600116156101000203166002900480601f016020809104026020016040519081016040528092919081815260200182805460018160011615610100020316600290048015613c6b5780601f10613c4057610100808354040283529160200191613c6b565b820191906000526020600020905b815481529060010190602001808311613c4e57829003601f168201915b505050505092509750975097509750975050505091939590929450565b6060338073ffffffffffffffffffffffffffffffffffffffff16600460008373ffffffffffffffffffffffffffffffffffffffff1673ffffffffffffffffffffffffffffffffffffffff16815260200190815260200160002060000160009054906101000a900473ffffffffffffffffffffffffffffffffffffffff1673ffffffffffffffffffffffffffffffffffffffff1614613d8e576040517f08c379a000000000000000000000000000000000000000000000000000000000815260040180806020018281038252601d8152602001807f74686973206163636f756e74206973206e6f7420437573746f6d65722e00000081525060200191505060405180910390fd5b6000600660008573ffffffffffffffffffffffffffffffffffffffff1673ffffffffffffffffffffffffffffffffffffffff168152602001908152602001600020905060008160000160006101000a81548173ffffffffffffffffffffffffffffffffffffffff021916908373ffffffffffffffffffffffffffffffffffffffff1602179055506040518060400160405280600181526020017f2000000000000000000000000000000000000000000000000000000000000000815250816001019080519060200190613e62929190613f48565b506040518060400160405280600181526020017f2000000000000000000000000000000000000000000000000000000000000000815250816003019080519060200190613eb0929190613f48565b506040518060400160405280600181526020017f2000000000000000000000000000000000000000000000000000000000000000815250816004019080519060200190613efe929190613f48565b50600081600501819055506040518060400160405280601681526020017f7468652070726f6a656374207761732064656c6574650000000000000000000081525092505050919050565b828054600181600116156101000203166002900490600052602060002090601f016020900481019282613f7e5760008555613fc5565b82601f10613f9757805160ff1916838001178555613fc5565b82800160010185558215613fc5579182015b82811115613fc4578251825591602001919060010190613fa9565b5b509050613fd29190613fd6565b5090565b5b80821115613fef576000816000905550600101613fd7565b509056fe7468652076616c756520796f752073656e642073686f756c64206265206c657373207468616e20796f75722063757272656e7420617665726167652e74686973206164647265737320697320616c726561647920726567697374726564a26469706673582212206fedaa9b13b8a6bb76b7be3adf94c2230f6eccb9cfd5d33ba6adbe442a95a7bd64736f6c63430007060033",
  "immutableReferences": {},
  "source": "\n// SPDX-License-Identifier: MIT\npragma solidity >=0.4.24 <0.9.0;\n// @title supply chain in small daily business \n/// @author veeda baha - <veedabaha@gmail.com>\n/// Allows the customer to add their project or works in to the network.\n/// Projects can be accessed by customers and Engineers .\n/// The customers can be shared or add ,get,edit and delete their projects \n/// The engineers can allow to see the record of the project.\n/// after the Engineer select a project for doing that set a value or price to that project.\n/// The custommer can see the price or value that Engineer add in to the system.\n/// The finilly the customer can accepte one of thoes values and payed the ether to engineer.\n\n import \"./InterfaceOfCuntract.sol\";\n\ncontract SmallBusiness is InterfaceOfCuntract{\n    \n    //  variables\n    address public owner ;\n    uint public deal;\n    address En =Engineers[msg.sender].engineerAddress;\n\n    //enum\n    enum State{\n      forSell,\n      Finish,\n      primsion,\n      unprmision\n    }\n  \n    //struct of customers\n    \n    struct customer{\n        address payable customerAddress;\n        string Name;\n    }\n    \n    //struct of Engineers\n    struct Engineer{\n      address payable engineerAddress;\n        string Name;\n        State state;\n       \n    }\n    \n    //struct of projects\n   struct Project{\n       address owner;\n        string Name;\n        State state;\n        string skills;\n        string information;\n        uint averageOfprice;\n        uint id;\n     \n    }\n\n    // struct of offer\n    struct offer{\n        uint256 price;\n        uint256 day;\n        string moreInform;\n    }\n    \n    /* \n   * Events\n   */\n      /// @notice Emitted when a Engineer is registred \n    /// @param _address Engineer address\n    event logAddCustomer(address _address);\n\n    /// @notice Emitted when a customer is registred \n    /// @param _address customer address\n    event logAddEngineers(address _address);\n\n    /// @notice Emitted when a Project is posted \n    /// @param _customerAddress is the address of Project\n    event PostProject(address _customerAddress);\n\n    /// @notice Emitted when Engineer add a price for working on project \n    /// @param  _customerAddress is the address of Project\n    /// @param price is the price that customer send to Engineer\n    event chooseTheProject(address _customerAddress , uint price);\n  \n    //mapping\n    \n    // store the offers of the Engineers with their project id\n    mapping( address => offer) public offers;\n    \n    //store struct of customers in mapping with their addresses\n    mapping(address => customer) public customers;\n    \n    //store struct of Engineers in mapping with their addresses\n    mapping (address=> Engineer) public Engineers;\n    \n     //store struct of projects in mapping with their addresses\n    mapping (address => Project) public projects;\n    \n    /* \n   * Modifiers\n   */\n\n    // Create a modifer, isOwner that checks if the msg.sender is the owner of the contract\n\n    modifier verifyCaller (address _address) { \n    require (msg.sender == _address); \n    _;\n    }\n    \n    modifier isOwner () { \n    require (owner == msg.sender,\n    \"Caller is not owner\"); \n    _;\n    }\n \n    modifier isCustomer(address _address){\n        require( customers[_address].customerAddress == _address,\n        \"this account is not Customer.\");\n        _;\n    }\n    \n    modifier isEngineer(address _Engineer){\n        require(Engineers[_Engineer].engineerAddress== _Engineer,\n        \"caller isnot Engineer\");\n        _;\n    }\n\n    modifier forSell(address _customerAddress){\n       require(projects[_customerAddress].owner != address(0), \n       \"The project is not nothing\");\n       require(projects[_customerAddress].state == State.forSell,\n       \"the project has already done..\");\n       _;\n    }\n    \n    modifier Finish(address _customerAddress){\n       require(projects[_customerAddress].owner != address(0), \n       \"The project is not nothing\");\n       require(projects[_customerAddress].state == State.Finish,\n       \"this Project has already been for sell\");\n       _;\n    }\n    modifier verifyState(){\n        require(Engineers[msg.sender].state == State.primsion,\n        \"this account already set value\");\n        _;\n    }\n\n    constructor() {\n        owner = msg.sender;\n        deal=0;\n    }\n    \n    //add customer`s address in to mapping\n    //add the parameters of customer in to struct\n    \n    function addCustomer(address payable customerAddress , string memory yourName) public override returns(bool) {\n        require(customers[customerAddress].customerAddress == address(0),\n        \"this address is already registred\");\n        customers[customerAddress]=customer({\n            customerAddress : customerAddress,\n            Name : yourName\n        });\n        emit logAddCustomer(customerAddress);\n        deal = deal + 1;\n        return true;\n    } \n    \n    \n    //add Engineers`s address in to mapping\n    //add more details in to Engineer`s struct\n    \n    function addEngineer(address payable _engineerAddress,string memory _yourName) public override returns(bool){\n        require(Engineers[_engineerAddress].engineerAddress == address(0),\n        \"this address already registred.\");\n        Engineers[_engineerAddress] = Engineer({\n            engineerAddress : _engineerAddress,\n            Name :_yourName,\n            state :State.primsion\n        });\n    emit logAddEngineers(_engineerAddress);\n     deal = deal + 1;\n    return true;\n\n    }\n    \n    ///add Project`s id in to mapping\n    ///check the state of project should be forSell\n    ///check the modifier is customer to call that function \n    ///the customer should call that function\n    \n    function addProject(string memory Name,string memory skills,string memory information,uint averageOfprice , uint _id) public override payable verifyCaller(msg.sender) returns(bool){\n        require(projects[msg.sender].owner == address(0), \n        \"this project already is exist.\");\n        require(msg.value>=averageOfprice,\n        \"the value you send should be less than your current average.\");\n        projects[msg.sender] = Project({\n            owner:msg.sender,\n            Name:Name,\n            skills:skills,\n            information:information,\n            averageOfprice:averageOfprice,\n            state:State.forSell,\n            id: _id\n           \n             });\n        deal = deal + 1;\n        emit PostProject(msg.sender);\n        return true;\n    }\n\n    function chooseToWork(address _customerAddress,uint256 day, uint price , string memory information)  public override isEngineer(msg.sender)   forSell(_customerAddress) verifyState() \n    returns(string memory){\n        offers[msg.sender] = offer({\n            price: price,\n            day:day,\n            moreInform:information\n        });\n        Engineers[msg.sender].state == State.unprmision;\n        emit chooseTheProject(msg.sender,price);\n        return \"set value on project\";\n    }\n  \n    function accepteCustomer(address payable _engineerAddress ) public payable override isCustomer(msg.sender) forSell(msg.sender) returns(bool) {\n        require(Engineers[_engineerAddress].engineerAddress == _engineerAddress ,\n            \"this account is not an engineer\");\n        require(customers[msg.sender].customerAddress == msg.sender ,\n            \"this customer is not Exist.\");\n        offer storage o = offers[_engineerAddress];\n        Engineer storage e = Engineers[_engineerAddress];\n        address payable to = e.engineerAddress; \n        uint value  = (o.price * 20)/100;\n        to.transfer(value *(1 ether));\n        return true;\n    }\n    \n  \n    function halfPayment(address _engineerAddress) public payable isCustomer(msg.sender){\n        require(Engineers[_engineerAddress].engineerAddress == _engineerAddress ,\n            \"this account is not an engineer\");\n        require(customers[msg.sender].customerAddress == msg.sender ,\n            \"this customer is not Exist.\");\n       \n        offer storage o = offers[_engineerAddress];\n        Engineer storage e = Engineers[_engineerAddress];\n        address payable to = e.engineerAddress; \n        uint value  = (o.price * 50)/100;\n        to.transfer(value *(1 ether));\n    }\n    function finishTheProject(address _engineerAddress) public payable isCustomer(msg.sender) {\n        require(Engineers[_engineerAddress].engineerAddress == _engineerAddress ,\n            \"this account is not an engineer\");\n        require(customers[msg.sender].customerAddress == msg.sender ,\n            \"this customer is not Exist.\");\n        Project storage p = projects[msg.sender];\n        p.state = State.Finish;\n        offer storage o = offers[_engineerAddress];\n        Engineer storage e = Engineers[_engineerAddress];\n        address payable to = e.engineerAddress; \n        uint value  = (o.price * 20)/100;\n        to.transfer(value *(1 ether));\n    }\n\n    function _passthevalue() public returns(string memory){\n        Project storage p = projects[msg.sender];\n        require(p.state == State.Finish ,\"this project was not finish\");\n        address payable to = customers[msg.sender].customerAddress ; \n        uint value = address(this).balance;\n        to.transfer(value);\n        _deleteProject(msg.sender);\n        return \"the value is return\";\n    }\n\n    //can delete the project with the id of project\n    function _deleteProject(address _customerAddress) private isCustomer(msg.sender) returns(string memory){\n\n        Project storage p = projects[_customerAddress];\n        p.owner= address(0);\n        p.Name = \" \";\n        p.skills = \" \";\n        p.information = \" \";\n        p.averageOfprice = 0 ;\n        \n        return \"the project was delete\";\n\n    \n    }\n      // get project parameters\n    function getProject(address _customerAddress) public view override verifyCaller(msg.sender) forSell(_customerAddress)returns (string memory Name,string memory skills, string memory information,uint averageOfprice , uint id )   \n    {\n        Project storage p = projects[_customerAddress];\n        return (p.Name,p.skills,p.information,p.averageOfprice  , p.id ); \n    }\n    \n\n    //the edit function\n    function EditProject(string memory Name,string memory skills,string memory information,uint averageOfprice,uint id)public override verifyCaller(msg.sender) forSell(msg.sender) returns (string memory)  { \n      \n        projects[msg.sender] = Project({\n            owner:msg.sender,\n            Name:Name,\n            state:State.forSell,\n            skills:skills,\n            information:information,\n            averageOfprice:averageOfprice,\n            id:id\n             });\n        deal = deal + 1;\n        return \"the project was update\"; \n    }\n\n    function getBalance() external view returns(uint){\n        return address(this).balance;\n    }\n\n   \n\n}",
  "sourcePath": "C:/Users/sodaba ulomi/Desktop/wslapp/contracts/SmallBusiness.sol",
  "compiler": {
    "name": "solc",
    "version": "0.7.6+commit.7338295f.Emscripten.clang"
  },
  "schemaVersion": "3.3.3",
  "updatedAt": "2022-01-12T11:28:42.394Z",
  "networkType": "ethereum",
  "devdoc": {
    "events": {
      "PostProject(address)": {
        "params": {
          "_customerAddress": "is the address of Project"
        }
      },
      "chooseTheProject(address,uint256)": {
        "params": {
          "_customerAddress": "is the address of Project",
          "price": "is the price that customer send to Engineer"
        }
      },
      "logAddCustomer(address)": {
        "params": {
          "_address": "Engineer address"
        }
      },
      "logAddEngineers(address)": {
        "params": {
          "_address": "customer address"
        }
      }
    },
    "kind": "dev",
    "methods": {},
    "version": 1
  },
  "userdoc": {
    "events": {
      "PostProject(address)": {
        "notice": "Emitted when a Project is posted "
      },
      "chooseTheProject(address,uint256)": {
        "notice": "Emitted when Engineer add a price for working on project "
      },
      "logAddCustomer(address)": {
        "notice": "Emitted when a Engineer is registred "
      },
      "logAddEngineers(address)": {
        "notice": "Emitted when a customer is registred "
      }
    },
    "kind": "user",
    "methods": {
      "accepteCustomer(address)": {
        "notice": "Allows a customer for view the price of the project that engineer add it and payed that price."
      },
      "addCustomer(address,string)": {
        "notice": "Allows to add a new customer in the network."
      },
      "addEngineer(address,string)": {
        "notice": "Allows to add a new engineer in the network."
      },
      "addProject(string,string,string,uint256,uint256)": {
        "notice": "add Project`s id in to mapping check the state of project should be forSell check the modifier is customer to call that function  the customer should call that function"
      },
      "getProject(address)": {
        "notice": "Allows a Engineer and customer and users for view the project."
      }
    },
    "version": 1
  }
}